{
  "_format": "hh-sol-artifact-1",
  "contractName": "CommunityIssuance",
  "sourceName": "contracts/LQTY/CommunityIssuance.sol",
  "abi": [
    {
      "inputs": [],
      "stateMutability": "nonpayable",
      "type": "constructor"
    },
    {
      "anonymous": false,
      "inputs": [
        {
          "indexed": false,
          "internalType": "address",
          "name": "_lqtyTokenAddress",
          "type": "address"
        }
      ],
      "name": "LQTYTokenAddressSet",
      "type": "event"
    },
    {
      "anonymous": false,
      "inputs": [
        {
          "indexed": true,
          "internalType": "address",
          "name": "previousOwner",
          "type": "address"
        },
        {
          "indexed": true,
          "internalType": "address",
          "name": "newOwner",
          "type": "address"
        }
      ],
      "name": "OwnershipTransferred",
      "type": "event"
    },
    {
      "anonymous": false,
      "inputs": [
        {
          "indexed": false,
          "internalType": "address",
          "name": "_stabilityPoolAddress",
          "type": "address"
        }
      ],
      "name": "StabilityPoolAddressSet",
      "type": "event"
    },
    {
      "anonymous": false,
      "inputs": [
        {
          "indexed": false,
          "internalType": "uint256",
          "name": "_totalLQTYIssued",
          "type": "uint256"
        }
      ],
      "name": "TotalLQTYIssuedUpdated",
      "type": "event"
    },
    {
      "inputs": [],
      "name": "DECIMAL_PRECISION",
      "outputs": [
        {
          "internalType": "uint256",
          "name": "",
          "type": "uint256"
        }
      ],
      "stateMutability": "view",
      "type": "function"
    },
    {
      "inputs": [],
      "name": "ISSUANCE_FACTOR",
      "outputs": [
        {
          "internalType": "uint256",
          "name": "",
          "type": "uint256"
        }
      ],
      "stateMutability": "view",
      "type": "function"
    },
    {
      "inputs": [],
      "name": "LQTYSupplyCap",
      "outputs": [
        {
          "internalType": "uint256",
          "name": "",
          "type": "uint256"
        }
      ],
      "stateMutability": "view",
      "type": "function"
    },
    {
      "inputs": [],
      "name": "NAME",
      "outputs": [
        {
          "internalType": "string",
          "name": "",
          "type": "string"
        }
      ],
      "stateMutability": "view",
      "type": "function"
    },
    {
      "inputs": [],
      "name": "SECONDS_IN_ONE_MINUTE",
      "outputs": [
        {
          "internalType": "uint256",
          "name": "",
          "type": "uint256"
        }
      ],
      "stateMutability": "view",
      "type": "function"
    },
    {
      "inputs": [],
      "name": "deploymentTime",
      "outputs": [
        {
          "internalType": "uint256",
          "name": "",
          "type": "uint256"
        }
      ],
      "stateMutability": "view",
      "type": "function"
    },
    {
      "inputs": [],
      "name": "isOwner",
      "outputs": [
        {
          "internalType": "bool",
          "name": "",
          "type": "bool"
        }
      ],
      "stateMutability": "view",
      "type": "function"
    },
    {
      "inputs": [],
      "name": "issueLQTY",
      "outputs": [
        {
          "internalType": "uint256",
          "name": "",
          "type": "uint256"
        }
      ],
      "stateMutability": "nonpayable",
      "type": "function"
    },
    {
      "inputs": [],
      "name": "lqtyToken",
      "outputs": [
        {
          "internalType": "contract ILQTYToken",
          "name": "",
          "type": "address"
        }
      ],
      "stateMutability": "view",
      "type": "function"
    },
    {
      "inputs": [],
      "name": "owner",
      "outputs": [
        {
          "internalType": "address",
          "name": "",
          "type": "address"
        }
      ],
      "stateMutability": "view",
      "type": "function"
    },
    {
      "inputs": [
        {
          "internalType": "address",
          "name": "_account",
          "type": "address"
        },
        {
          "internalType": "uint256",
          "name": "_LQTYamount",
          "type": "uint256"
        }
      ],
      "name": "sendLQTY",
      "outputs": [],
      "stateMutability": "nonpayable",
      "type": "function"
    },
    {
      "inputs": [
        {
          "internalType": "address",
          "name": "_lqtyTokenAddress",
          "type": "address"
        },
        {
          "internalType": "address",
          "name": "_stabilityPoolAddress",
          "type": "address"
        }
      ],
      "name": "setAddresses",
      "outputs": [],
      "stateMutability": "nonpayable",
      "type": "function"
    },
    {
      "inputs": [],
      "name": "stabilityPoolAddress",
      "outputs": [
        {
          "internalType": "address",
          "name": "",
          "type": "address"
        }
      ],
      "stateMutability": "view",
      "type": "function"
    },
    {
      "inputs": [],
      "name": "totalLQTYIssued",
      "outputs": [
        {
          "internalType": "uint256",
          "name": "",
          "type": "uint256"
        }
      ],
      "stateMutability": "view",
      "type": "function"
    }
  ],
  "bytecode": "0x60a060405234801561001057600080fd5b50600080546001600160a01b0319163390811782556040519091907f8be0079c531659141344cd1fd0a4f28419497f9722a3daafe3b4186f6b6457e0908290a342608052608051610b1f6100736000398061058e52806106095250610b1f6000f3fe608060405234801561001057600080fd5b50600436106100ca5760003560e01c80638da5cb5b1161007c5780638da5cb5b1461015b5780638f32d59b1461016357806390107afe1461017f578063a20baee6146101ad578063a3f4df7e146101b5578063b140384b14610232578063ecda10f51461023a576100ca565b80630b622ab2146100cf5780630fc83da3146100f35780631f7af3c31461010d57806346ad34d9146101155780634e5c99571461011d578063614d2ab61461012557806361ec893d14610153575b600080fd5b6100d7610242565b604080516001600160a01b039092168252519081900360200190f35b6100fb610251565b60408051918252519081900360200190f35b6100d761025d565b6100fb61026c565b6100fb610305565b6101516004803603604081101561013b57600080fd5b506001600160a01b03813516906020013561030b565b005b6100fb610399565b6100d761039e565b61016b6103ad565b604080519115158252519081900360200190f35b6101516004803603604081101561019557600080fd5b506001600160a01b03813581169160200135166103be565b6100fb61054d565b6101bd610559565b6040805160208082528351818301528351919283929083019185019080838360005b838110156101f75781810151838201526020016101df565b50505050905090810190601f1680156102245780820380516001836020036101000a031916815260200191505b509250505060405180910390f35b6100fb610586565b6100fb61058c565b6003546001600160a01b031681565b670de0b5809a6f939881565b6002546001600160a01b031681565b60006102766105b0565b60006102aa670de0b6b3a764000061029e61028f6105fb565b6001549063ffffffff61068016565b9063ffffffff6106e216565b905060006102c36004548361072490919063ffffffff16565b60048390556040805184815290519192507f033068abf93bdec23e781d0a3b3f3e688bfa8471c68b629ad68652cdc63a6e49919081900360200190a191505090565b60015481565b6103136105b0565b6002546040805163a9059cbb60e01b81526001600160a01b038581166004830152602482018590529151919092169163a9059cbb9160448083019260209291908290030181600087803b15801561036957600080fd5b505af115801561037d573d6000803e3d6000fd5b505050506040513d602081101561039357600080fd5b50505050565b603c81565b6000546001600160a01b031690565b6000546001600160a01b0316331490565b6103c66103ad565b610417576040805162461bcd60e51b815260206004820181905260248201527f4f776e61626c653a2063616c6c6572206973206e6f7420746865206f776e6572604482015290519081900360640190fd5b61042082610766565b61042981610766565b600280546001600160a01b038085166001600160a01b0319928316179283905560038054858316931692909217909155604080516370a0823160e01b8152306004820152905192909116916370a0823191602480820192602092909190829003018186803b15801561049a57600080fd5b505afa1580156104ae573d6000803e3d6000fd5b505050506040513d60208110156104c457600080fd5b5051600155604080516001600160a01b038416815290517fb0c89119a7c10e4c2d02306921ba368ac83d0e4b302337916017485c2791bec59181900360200190a1604080516001600160a01b038316815290517f45c53611bc8ba9e11f4f8173bda9e3faf89c395ddb83f9a55230b156828db3159181900360200190a1610549610815565b5050565b670de0b6b3a764000081565b60405180604001604052806011815260200170436f6d6d756e69747949737375616e636560781b81525081565b60045481565b7f000000000000000000000000000000000000000000000000000000000000000081565b6003546001600160a01b031633146105f95760405162461bcd60e51b8152600401808060200182810382526023815260200180610ac76023913960400191505060405180910390fd5b565b600080610633603c61029e427f000000000000000000000000000000000000000000000000000000000000000063ffffffff61072416565b90506000610649670de0b5809a6f93988361085f565b90506000610665670de0b6b3a76400008363ffffffff61072416565b9050670de0b6b3a764000081111561067957fe5b9250505090565b60008261068f575060006106dc565b8282028284828161069c57fe5b04146106d95760405162461bcd60e51b8152600401808060200182810382526021815260200180610aa66021913960400191505060405180910390fd5b90505b92915050565b60006106d983836040518060400160405280601a81526020017f536166654d6174683a206469766973696f6e206279207a65726f000000000000815250610914565b60006106d983836040518060400160405280601e81526020017f536166654d6174683a207375627472616374696f6e206f766572666c6f7700008152506109b6565b6001600160a01b0381166107c1576040805162461bcd60e51b815260206004820152601e60248201527f4163636f756e742063616e6e6f74206265207a65726f20616464726573730000604482015290519081900360640190fd5b803b80610549576040805162461bcd60e51b815260206004820181905260248201527f4163636f756e7420636f64652073697a652063616e6e6f74206265207a65726f604482015290519081900360640190fd5b600080546040516001600160a01b03909116907f8be0079c531659141344cd1fd0a4f28419497f9722a3daafe3b4186f6b6457e0908390a3600080546001600160a01b0319169055565b6000631f54050082111561087557631f54050091505b816108895750670de0b6b3a76400006106dc565b670de0b6b3a764000083835b600181111561090057600281066108ca576108b08283610a10565b91506108c381600263ffffffff6106e216565b90506108fb565b6108d48284610a10565b92506108e08283610a10565b91506108f8600261029e83600163ffffffff61072416565b90505b610895565b61090a8284610a10565b9695505050505050565b600081836109a05760405162461bcd60e51b81526004018080602001828103825283818151815260200191508051906020019080838360005b8381101561096557818101518382015260200161094d565b50505050905090810190601f1680156109925780820380516001836020036101000a031916815260200191505b509250505060405180910390fd5b5060008385816109ac57fe5b0495945050505050565b60008184841115610a085760405162461bcd60e51b815260206004820181815283516024840152835190928392604490910191908501908083836000831561096557818101518382015260200161094d565b505050900390565b600080610a23848463ffffffff61068016565b9050610a43670de0b6b3a764000061029e836706f05b59d3b20000610a4b565b949350505050565b6000828201838110156106d9576040805162461bcd60e51b815260206004820152601b60248201527f536166654d6174683a206164646974696f6e206f766572666c6f770000000000604482015290519081900360640190fdfe536166654d6174683a206d756c7469706c69636174696f6e206f766572666c6f77436f6d6d756e69747949737375616e63653a2063616c6c6572206973206e6f74205350a2646970667358221220a355275c66a387a683c4a8cd0f8c560e48e2447cd90013f1145384dc17f65c6464736f6c634300060b0033",
  "linkReferences": {},
  "deployedLinkReferences": {}
}