{
  "_format": "hh-sol-artifact-1",
  "contractName": "CommunityIssuanceTester",
  "sourceName": "contracts/TestContracts/CommunityIssuanceTester.sol",
  "abi": [
    {
      "anonymous": false,
      "inputs": [
        {
          "indexed": false,
          "internalType": "address",
          "name": "_lqtyTokenAddress",
          "type": "address"
        }
      ],
      "name": "LQTYTokenAddressSet",
      "type": "event"
    },
    {
      "anonymous": false,
      "inputs": [
        {
          "indexed": true,
          "internalType": "address",
          "name": "previousOwner",
          "type": "address"
        },
        {
          "indexed": true,
          "internalType": "address",
          "name": "newOwner",
          "type": "address"
        }
      ],
      "name": "OwnershipTransferred",
      "type": "event"
    },
    {
      "anonymous": false,
      "inputs": [
        {
          "indexed": false,
          "internalType": "address",
          "name": "_stabilityPoolAddress",
          "type": "address"
        }
      ],
      "name": "StabilityPoolAddressSet",
      "type": "event"
    },
    {
      "anonymous": false,
      "inputs": [
        {
          "indexed": false,
          "internalType": "uint256",
          "name": "_totalLQTYIssued",
          "type": "uint256"
        }
      ],
      "name": "TotalLQTYIssuedUpdated",
      "type": "event"
    },
    {
      "inputs": [],
      "name": "DECIMAL_PRECISION",
      "outputs": [
        {
          "internalType": "uint256",
          "name": "",
          "type": "uint256"
        }
      ],
      "stateMutability": "view",
      "type": "function"
    },
    {
      "inputs": [],
      "name": "ISSUANCE_FACTOR",
      "outputs": [
        {
          "internalType": "uint256",
          "name": "",
          "type": "uint256"
        }
      ],
      "stateMutability": "view",
      "type": "function"
    },
    {
      "inputs": [],
      "name": "LQTYSupplyCap",
      "outputs": [
        {
          "internalType": "uint256",
          "name": "",
          "type": "uint256"
        }
      ],
      "stateMutability": "view",
      "type": "function"
    },
    {
      "inputs": [],
      "name": "NAME",
      "outputs": [
        {
          "internalType": "string",
          "name": "",
          "type": "string"
        }
      ],
      "stateMutability": "view",
      "type": "function"
    },
    {
      "inputs": [],
      "name": "SECONDS_IN_ONE_MINUTE",
      "outputs": [
        {
          "internalType": "uint256",
          "name": "",
          "type": "uint256"
        }
      ],
      "stateMutability": "view",
      "type": "function"
    },
    {
      "inputs": [],
      "name": "deploymentTime",
      "outputs": [
        {
          "internalType": "uint256",
          "name": "",
          "type": "uint256"
        }
      ],
      "stateMutability": "view",
      "type": "function"
    },
    {
      "inputs": [],
      "name": "getCumulativeIssuanceFraction",
      "outputs": [
        {
          "internalType": "uint256",
          "name": "",
          "type": "uint256"
        }
      ],
      "stateMutability": "view",
      "type": "function"
    },
    {
      "inputs": [],
      "name": "isOwner",
      "outputs": [
        {
          "internalType": "bool",
          "name": "",
          "type": "bool"
        }
      ],
      "stateMutability": "view",
      "type": "function"
    },
    {
      "inputs": [],
      "name": "issueLQTY",
      "outputs": [
        {
          "internalType": "uint256",
          "name": "",
          "type": "uint256"
        }
      ],
      "stateMutability": "nonpayable",
      "type": "function"
    },
    {
      "inputs": [],
      "name": "lqtyToken",
      "outputs": [
        {
          "internalType": "contract ILQTYToken",
          "name": "",
          "type": "address"
        }
      ],
      "stateMutability": "view",
      "type": "function"
    },
    {
      "inputs": [
        {
          "internalType": "uint256",
          "name": "_amount",
          "type": "uint256"
        }
      ],
      "name": "obtainLQTY",
      "outputs": [],
      "stateMutability": "nonpayable",
      "type": "function"
    },
    {
      "inputs": [],
      "name": "owner",
      "outputs": [
        {
          "internalType": "address",
          "name": "",
          "type": "address"
        }
      ],
      "stateMutability": "view",
      "type": "function"
    },
    {
      "inputs": [
        {
          "internalType": "address",
          "name": "_account",
          "type": "address"
        },
        {
          "internalType": "uint256",
          "name": "_LQTYamount",
          "type": "uint256"
        }
      ],
      "name": "sendLQTY",
      "outputs": [],
      "stateMutability": "nonpayable",
      "type": "function"
    },
    {
      "inputs": [
        {
          "internalType": "address",
          "name": "_lqtyTokenAddress",
          "type": "address"
        },
        {
          "internalType": "address",
          "name": "_stabilityPoolAddress",
          "type": "address"
        }
      ],
      "name": "setAddresses",
      "outputs": [],
      "stateMutability": "nonpayable",
      "type": "function"
    },
    {
      "inputs": [],
      "name": "stabilityPoolAddress",
      "outputs": [
        {
          "internalType": "address",
          "name": "",
          "type": "address"
        }
      ],
      "stateMutability": "view",
      "type": "function"
    },
    {
      "inputs": [],
      "name": "totalLQTYIssued",
      "outputs": [
        {
          "internalType": "uint256",
          "name": "",
          "type": "uint256"
        }
      ],
      "stateMutability": "view",
      "type": "function"
    },
    {
      "inputs": [],
      "name": "unprotectedIssueLQTY",
      "outputs": [
        {
          "internalType": "uint256",
          "name": "",
          "type": "uint256"
        }
      ],
      "stateMutability": "nonpayable",
      "type": "function"
    }
  ],
  "bytecode": "0x60a060405234801561001057600080fd5b50600080546001600160a01b0319163390811782556040519091907f8be0079c531659141344cd1fd0a4f28419497f9722a3daafe3b4186f6b6457e0908290a342608052608051610c3e610073600039806106ad52806106dd5250610c3e6000f3fe608060405234801561001057600080fd5b50600436106100eb5760003560e01c806361fc8ab41161009257806361fc8ab4146101845780638da5cb5b146101a15780638f32d59b146101a957806390107afe146101c55780639d5b044d146101f3578063a20baee6146101fb578063a3f4df7e14610203578063b140384b14610280578063ecda10f514610288576100eb565b80630b622ab2146100f05780630fc83da3146101145780631f7af3c31461012e57806343e0a60b1461013657806346ad34d91461013e5780634e5c995714610146578063614d2ab61461014e57806361ec893d1461017c575b600080fd5b6100f8610290565b604080516001600160a01b039092168252519081900360200190f35b61011c61029f565b60408051918252519081900360200190f35b6100f86102ab565b61011c6102ba565b61011c610314565b61011c610392565b61017a6004803603604081101561016457600080fd5b506001600160a01b038135169060200135610398565b005b61011c610426565b61017a6004803603602081101561019a57600080fd5b503561042b565b6100f86104ae565b6101b16104bd565b604080519115158252519081900360200190f35b61017a600480360360408110156101db57600080fd5b506001600160a01b03813581169160200135166104ce565b61011c61065d565b61011c61066c565b61020b610678565b6040805160208082528351818301528351919283929083019185019080838360005b8381101561024557818101518382015260200161022d565b50505050905090810190601f1680156102725780820380516001836020036101000a031916815260200191505b509250505060405180910390f35b61011c6106a5565b61011c6106ab565b6003546001600160a01b031681565b670de0b5809a6f939881565b6002546001600160a01b031681565b6000806102ef670de0b6b3a76400006102e36102d46106cf565b6001549063ffffffff61075416565b9063ffffffff6107b616565b90506000610308600454836107f890919063ffffffff16565b60049290925550905090565b600061031e61083a565b6000610337670de0b6b3a76400006102e36102d46106cf565b90506000610350600454836107f890919063ffffffff16565b60048390556040805184815290519192507f033068abf93bdec23e781d0a3b3f3e688bfa8471c68b629ad68652cdc63a6e49919081900360200190a191505090565b60015481565b6103a061083a565b6002546040805163a9059cbb60e01b81526001600160a01b038581166004830152602482018590529151919092169163a9059cbb9160448083019260209291908290030181600087803b1580156103f657600080fd5b505af115801561040a573d6000803e3d6000fd5b505050506040513d602081101561042057600080fd5b50505050565b603c81565b6002546040805163a9059cbb60e01b81523360048201526024810184905290516001600160a01b039092169163a9059cbb916044808201926020929091908290030181600087803b15801561047f57600080fd5b505af1158015610493573d6000803e3d6000fd5b505050506040513d60208110156104a957600080fd5b505050565b6000546001600160a01b031690565b6000546001600160a01b0316331490565b6104d66104bd565b610527576040805162461bcd60e51b815260206004820181905260248201527f4f776e61626c653a2063616c6c6572206973206e6f7420746865206f776e6572604482015290519081900360640190fd5b61053082610885565b61053981610885565b600280546001600160a01b038085166001600160a01b0319928316179283905560038054858316931692909217909155604080516370a0823160e01b8152306004820152905192909116916370a0823191602480820192602092909190829003018186803b1580156105aa57600080fd5b505afa1580156105be573d6000803e3d6000fd5b505050506040513d60208110156105d457600080fd5b5051600155604080516001600160a01b038416815290517fb0c89119a7c10e4c2d02306921ba368ac83d0e4b302337916017485c2791bec59181900360200190a1604080516001600160a01b038316815290517f45c53611bc8ba9e11f4f8173bda9e3faf89c395ddb83f9a55230b156828db3159181900360200190a1610659610934565b5050565b60006106676106cf565b905090565b670de0b6b3a764000081565b60405180604001604052806011815260200170436f6d6d756e69747949737375616e636560781b81525081565b60045481565b7f000000000000000000000000000000000000000000000000000000000000000081565b600080610707603c6102e3427f000000000000000000000000000000000000000000000000000000000000000063ffffffff6107f816565b9050600061071d670de0b5809a6f93988361097e565b90506000610739670de0b6b3a76400008363ffffffff6107f816565b9050670de0b6b3a764000081111561074d57fe5b9250505090565b600082610763575060006107b0565b8282028284828161077057fe5b04146107ad5760405162461bcd60e51b8152600401808060200182810382526021815260200180610bc56021913960400191505060405180910390fd5b90505b92915050565b60006107ad83836040518060400160405280601a81526020017f536166654d6174683a206469766973696f6e206279207a65726f000000000000815250610a33565b60006107ad83836040518060400160405280601e81526020017f536166654d6174683a207375627472616374696f6e206f766572666c6f770000815250610ad5565b6003546001600160a01b031633146108835760405162461bcd60e51b8152600401808060200182810382526023815260200180610be66023913960400191505060405180910390fd5b565b6001600160a01b0381166108e0576040805162461bcd60e51b815260206004820152601e60248201527f4163636f756e742063616e6e6f74206265207a65726f20616464726573730000604482015290519081900360640190fd5b803b80610659576040805162461bcd60e51b815260206004820181905260248201527f4163636f756e7420636f64652073697a652063616e6e6f74206265207a65726f604482015290519081900360640190fd5b600080546040516001600160a01b03909116907f8be0079c531659141344cd1fd0a4f28419497f9722a3daafe3b4186f6b6457e0908390a3600080546001600160a01b0319169055565b6000631f54050082111561099457631f54050091505b816109a85750670de0b6b3a76400006107b0565b670de0b6b3a764000083835b6001811115610a1f57600281066109e9576109cf8283610b2f565b91506109e281600263ffffffff6107b616565b9050610a1a565b6109f38284610b2f565b92506109ff8283610b2f565b9150610a1760026102e383600163ffffffff6107f816565b90505b6109b4565b610a298284610b2f565b9695505050505050565b60008183610abf5760405162461bcd60e51b81526004018080602001828103825283818151815260200191508051906020019080838360005b83811015610a84578181015183820152602001610a6c565b50505050905090810190601f168015610ab15780820380516001836020036101000a031916815260200191505b509250505060405180910390fd5b506000838581610acb57fe5b0495945050505050565b60008184841115610b275760405162461bcd60e51b8152602060048201818152835160248401528351909283926044909101919085019080838360008315610a84578181015183820152602001610a6c565b505050900390565b600080610b42848463ffffffff61075416565b9050610b62670de0b6b3a76400006102e3836706f05b59d3b20000610b6a565b949350505050565b6000828201838110156107ad576040805162461bcd60e51b815260206004820152601b60248201527f536166654d6174683a206164646974696f6e206f766572666c6f770000000000604482015290519081900360640190fdfe536166654d6174683a206d756c7469706c69636174696f6e206f766572666c6f77436f6d6d756e69747949737375616e63653a2063616c6c6572206973206e6f74205350a2646970667358221220e0aaa443024541321e4620d5fcb1596a0ef69137514280d1d9cfa6bc340b23c064736f6c634300060b0033",
  "linkReferences": {},
  "deployedLinkReferences": {}
}