{
  "_format": "hh-sol-artifact-1",
  "contractName": "TroveManagerTester",
  "sourceName": "contracts/TestContracts/CDPManagerTester.sol",
  "abi": [
    {
      "anonymous": false,
      "inputs": [
        {
          "indexed": false,
          "internalType": "address",
          "name": "_activePoolAddress",
          "type": "address"
        }
      ],
      "name": "ActivePoolAddressChanged",
      "type": "event"
    },
    {
      "anonymous": false,
      "inputs": [
        {
          "indexed": false,
          "internalType": "uint256",
          "name": "_baseRate",
          "type": "uint256"
        }
      ],
      "name": "BaseRateUpdated",
      "type": "event"
    },
    {
      "anonymous": false,
      "inputs": [
        {
          "indexed": false,
          "internalType": "address",
          "name": "_newBorrowerOperationsAddress",
          "type": "address"
        }
      ],
      "name": "BorrowerOperationsAddressChanged",
      "type": "event"
    },
    {
      "anonymous": false,
      "inputs": [
        {
          "indexed": false,
          "internalType": "address",
          "name": "_collSurplusPoolAddress",
          "type": "address"
        }
      ],
      "name": "CollSurplusPoolAddressChanged",
      "type": "event"
    },
    {
      "anonymous": false,
      "inputs": [
        {
          "indexed": false,
          "internalType": "address",
          "name": "_defaultPoolAddress",
          "type": "address"
        }
      ],
      "name": "DefaultPoolAddressChanged",
      "type": "event"
    },
    {
      "anonymous": false,
      "inputs": [
        {
          "indexed": false,
          "internalType": "address",
          "name": "_gasPoolAddress",
          "type": "address"
        }
      ],
      "name": "GasPoolAddressChanged",
      "type": "event"
    },
    {
      "anonymous": false,
      "inputs": [
        {
          "indexed": false,
          "internalType": "address",
          "name": "_lqtyStakingAddress",
          "type": "address"
        }
      ],
      "name": "LQTYStakingAddressChanged",
      "type": "event"
    },
    {
      "anonymous": false,
      "inputs": [
        {
          "indexed": false,
          "internalType": "address",
          "name": "_lqtyTokenAddress",
          "type": "address"
        }
      ],
      "name": "LQTYTokenAddressChanged",
      "type": "event"
    },
    {
      "anonymous": false,
      "inputs": [
        {
          "indexed": false,
          "internalType": "uint256",
          "name": "_L_ETH",
          "type": "uint256"
        },
        {
          "indexed": false,
          "internalType": "uint256",
          "name": "_L_LUSDDebt",
          "type": "uint256"
        }
      ],
      "name": "LTermsUpdated",
      "type": "event"
    },
    {
      "anonymous": false,
      "inputs": [
        {
          "indexed": false,
          "internalType": "address",
          "name": "_newLUSDTokenAddress",
          "type": "address"
        }
      ],
      "name": "LUSDTokenAddressChanged",
      "type": "event"
    },
    {
      "anonymous": false,
      "inputs": [
        {
          "indexed": false,
          "internalType": "uint256",
          "name": "_lastFeeOpTime",
          "type": "uint256"
        }
      ],
      "name": "LastFeeOpTimeUpdated",
      "type": "event"
    },
    {
      "anonymous": false,
      "inputs": [
        {
          "indexed": false,
          "internalType": "uint256",
          "name": "_liquidatedDebt",
          "type": "uint256"
        },
        {
          "indexed": false,
          "internalType": "uint256",
          "name": "_liquidatedColl",
          "type": "uint256"
        },
        {
          "indexed": false,
          "internalType": "uint256",
          "name": "_collGasCompensation",
          "type": "uint256"
        },
        {
          "indexed": false,
          "internalType": "uint256",
          "name": "_LUSDGasCompensation",
          "type": "uint256"
        }
      ],
      "name": "Liquidation",
      "type": "event"
    },
    {
      "anonymous": false,
      "inputs": [
        {
          "indexed": true,
          "internalType": "address",
          "name": "previousOwner",
          "type": "address"
        },
        {
          "indexed": true,
          "internalType": "address",
          "name": "newOwner",
          "type": "address"
        }
      ],
      "name": "OwnershipTransferred",
      "type": "event"
    },
    {
      "anonymous": false,
      "inputs": [
        {
          "indexed": false,
          "internalType": "address",
          "name": "_newPriceFeedAddress",
          "type": "address"
        }
      ],
      "name": "PriceFeedAddressChanged",
      "type": "event"
    },
    {
      "anonymous": false,
      "inputs": [
        {
          "indexed": false,
          "internalType": "uint256",
          "name": "_attemptedLUSDAmount",
          "type": "uint256"
        },
        {
          "indexed": false,
          "internalType": "uint256",
          "name": "_actualLUSDAmount",
          "type": "uint256"
        },
        {
          "indexed": false,
          "internalType": "uint256",
          "name": "_ETHSent",
          "type": "uint256"
        },
        {
          "indexed": false,
          "internalType": "uint256",
          "name": "_ETHFee",
          "type": "uint256"
        }
      ],
      "name": "Redemption",
      "type": "event"
    },
    {
      "anonymous": false,
      "inputs": [
        {
          "indexed": false,
          "internalType": "address",
          "name": "_sortedTrovesAddress",
          "type": "address"
        }
      ],
      "name": "SortedTrovesAddressChanged",
      "type": "event"
    },
    {
      "anonymous": false,
      "inputs": [
        {
          "indexed": false,
          "internalType": "address",
          "name": "_stabilityPoolAddress",
          "type": "address"
        }
      ],
      "name": "StabilityPoolAddressChanged",
      "type": "event"
    },
    {
      "anonymous": false,
      "inputs": [
        {
          "indexed": false,
          "internalType": "uint256",
          "name": "_totalStakesSnapshot",
          "type": "uint256"
        },
        {
          "indexed": false,
          "internalType": "uint256",
          "name": "_totalCollateralSnapshot",
          "type": "uint256"
        }
      ],
      "name": "SystemSnapshotsUpdated",
      "type": "event"
    },
    {
      "anonymous": false,
      "inputs": [
        {
          "indexed": false,
          "internalType": "uint256",
          "name": "_newTotalStakes",
          "type": "uint256"
        }
      ],
      "name": "TotalStakesUpdated",
      "type": "event"
    },
    {
      "anonymous": false,
      "inputs": [
        {
          "indexed": false,
          "internalType": "address",
          "name": "_borrower",
          "type": "address"
        },
        {
          "indexed": false,
          "internalType": "uint256",
          "name": "_newIndex",
          "type": "uint256"
        }
      ],
      "name": "TroveIndexUpdated",
      "type": "event"
    },
    {
      "anonymous": false,
      "inputs": [
        {
          "indexed": true,
          "internalType": "address",
          "name": "_borrower",
          "type": "address"
        },
        {
          "indexed": false,
          "internalType": "uint256",
          "name": "_debt",
          "type": "uint256"
        },
        {
          "indexed": false,
          "internalType": "uint256",
          "name": "_coll",
          "type": "uint256"
        },
        {
          "indexed": false,
          "internalType": "enum TroveManager.TroveManagerOperation",
          "name": "_operation",
          "type": "uint8"
        }
      ],
      "name": "TroveLiquidated",
      "type": "event"
    },
    {
      "anonymous": false,
      "inputs": [
        {
          "indexed": false,
          "internalType": "uint256",
          "name": "_L_ETH",
          "type": "uint256"
        },
        {
          "indexed": false,
          "internalType": "uint256",
          "name": "_L_LUSDDebt",
          "type": "uint256"
        }
      ],
      "name": "TroveSnapshotsUpdated",
      "type": "event"
    },
    {
      "anonymous": false,
      "inputs": [
        {
          "indexed": true,
          "internalType": "address",
          "name": "_borrower",
          "type": "address"
        },
        {
          "indexed": false,
          "internalType": "uint256",
          "name": "_debt",
          "type": "uint256"
        },
        {
          "indexed": false,
          "internalType": "uint256",
          "name": "_coll",
          "type": "uint256"
        },
        {
          "indexed": false,
          "internalType": "uint256",
          "name": "_stake",
          "type": "uint256"
        },
        {
          "indexed": false,
          "internalType": "enum TroveManager.TroveManagerOperation",
          "name": "_operation",
          "type": "uint8"
        }
      ],
      "name": "TroveUpdated",
      "type": "event"
    },
    {
      "inputs": [],
      "name": "BETA",
      "outputs": [
        {
          "internalType": "uint256",
          "name": "",
          "type": "uint256"
        }
      ],
      "stateMutability": "view",
      "type": "function"
    },
    {
      "inputs": [],
      "name": "BOOTSTRAP_PERIOD",
      "outputs": [
        {
          "internalType": "uint256",
          "name": "",
          "type": "uint256"
        }
      ],
      "stateMutability": "view",
      "type": "function"
    },
    {
      "inputs": [],
      "name": "BORROWING_FEE_FLOOR",
      "outputs": [
        {
          "internalType": "uint256",
          "name": "",
          "type": "uint256"
        }
      ],
      "stateMutability": "view",
      "type": "function"
    },
    {
      "inputs": [],
      "name": "CCR",
      "outputs": [
        {
          "internalType": "uint256",
          "name": "",
          "type": "uint256"
        }
      ],
      "stateMutability": "view",
      "type": "function"
    },
    {
      "inputs": [],
      "name": "DECIMAL_PRECISION",
      "outputs": [
        {
          "internalType": "uint256",
          "name": "",
          "type": "uint256"
        }
      ],
      "stateMutability": "view",
      "type": "function"
    },
    {
      "inputs": [],
      "name": "LUSD_GAS_COMPENSATION",
      "outputs": [
        {
          "internalType": "uint256",
          "name": "",
          "type": "uint256"
        }
      ],
      "stateMutability": "view",
      "type": "function"
    },
    {
      "inputs": [],
      "name": "L_ETH",
      "outputs": [
        {
          "internalType": "uint256",
          "name": "",
          "type": "uint256"
        }
      ],
      "stateMutability": "view",
      "type": "function"
    },
    {
      "inputs": [],
      "name": "L_LUSDDebt",
      "outputs": [
        {
          "internalType": "uint256",
          "name": "",
          "type": "uint256"
        }
      ],
      "stateMutability": "view",
      "type": "function"
    },
    {
      "inputs": [],
      "name": "MAX_BORROWING_FEE",
      "outputs": [
        {
          "internalType": "uint256",
          "name": "",
          "type": "uint256"
        }
      ],
      "stateMutability": "view",
      "type": "function"
    },
    {
      "inputs": [],
      "name": "MCR",
      "outputs": [
        {
          "internalType": "uint256",
          "name": "",
          "type": "uint256"
        }
      ],
      "stateMutability": "view",
      "type": "function"
    },
    {
      "inputs": [],
      "name": "MINUTE_DECAY_FACTOR",
      "outputs": [
        {
          "internalType": "uint256",
          "name": "",
          "type": "uint256"
        }
      ],
      "stateMutability": "view",
      "type": "function"
    },
    {
      "inputs": [],
      "name": "MIN_NET_DEBT",
      "outputs": [
        {
          "internalType": "uint256",
          "name": "",
          "type": "uint256"
        }
      ],
      "stateMutability": "view",
      "type": "function"
    },
    {
      "inputs": [],
      "name": "NAME",
      "outputs": [
        {
          "internalType": "string",
          "name": "",
          "type": "string"
        }
      ],
      "stateMutability": "view",
      "type": "function"
    },
    {
      "inputs": [],
      "name": "PERCENT_DIVISOR",
      "outputs": [
        {
          "internalType": "uint256",
          "name": "",
          "type": "uint256"
        }
      ],
      "stateMutability": "view",
      "type": "function"
    },
    {
      "inputs": [],
      "name": "REDEMPTION_FEE_FLOOR",
      "outputs": [
        {
          "internalType": "uint256",
          "name": "",
          "type": "uint256"
        }
      ],
      "stateMutability": "view",
      "type": "function"
    },
    {
      "inputs": [],
      "name": "SECONDS_IN_ONE_MINUTE",
      "outputs": [
        {
          "internalType": "uint256",
          "name": "",
          "type": "uint256"
        }
      ],
      "stateMutability": "view",
      "type": "function"
    },
    {
      "inputs": [
        {
          "internalType": "uint256",
          "name": "",
          "type": "uint256"
        }
      ],
      "name": "TroveOwners",
      "outputs": [
        {
          "internalType": "address",
          "name": "",
          "type": "address"
        }
      ],
      "stateMutability": "view",
      "type": "function"
    },
    {
      "inputs": [
        {
          "internalType": "address",
          "name": "",
          "type": "address"
        }
      ],
      "name": "Troves",
      "outputs": [
        {
          "internalType": "uint256",
          "name": "debt",
          "type": "uint256"
        },
        {
          "internalType": "uint256",
          "name": "coll",
          "type": "uint256"
        },
        {
          "internalType": "uint256",
          "name": "stake",
          "type": "uint256"
        },
        {
          "internalType": "enum TroveManager.Status",
          "name": "status",
          "type": "uint8"
        },
        {
          "internalType": "uint128",
          "name": "arrayIndex",
          "type": "uint128"
        }
      ],
      "stateMutability": "view",
      "type": "function"
    },
    {
      "inputs": [],
      "name": "_100pct",
      "outputs": [
        {
          "internalType": "uint256",
          "name": "",
          "type": "uint256"
        }
      ],
      "stateMutability": "view",
      "type": "function"
    },
    {
      "inputs": [],
      "name": "activePool",
      "outputs": [
        {
          "internalType": "contract IActivePool",
          "name": "",
          "type": "address"
        }
      ],
      "stateMutability": "view",
      "type": "function"
    },
    {
      "inputs": [
        {
          "internalType": "address",
          "name": "_borrower",
          "type": "address"
        }
      ],
      "name": "addTroveOwnerToArray",
      "outputs": [
        {
          "internalType": "uint256",
          "name": "index",
          "type": "uint256"
        }
      ],
      "stateMutability": "nonpayable",
      "type": "function"
    },
    {
      "inputs": [
        {
          "internalType": "address",
          "name": "_borrower",
          "type": "address"
        }
      ],
      "name": "applyPendingRewards",
      "outputs": [],
      "stateMutability": "nonpayable",
      "type": "function"
    },
    {
      "inputs": [],
      "name": "baseRate",
      "outputs": [
        {
          "internalType": "uint256",
          "name": "",
          "type": "uint256"
        }
      ],
      "stateMutability": "view",
      "type": "function"
    },
    {
      "inputs": [
        {
          "internalType": "address[]",
          "name": "_troveArray",
          "type": "address[]"
        }
      ],
      "name": "batchLiquidateTroves",
      "outputs": [],
      "stateMutability": "nonpayable",
      "type": "function"
    },
    {
      "inputs": [],
      "name": "borrowerOperationsAddress",
      "outputs": [
        {
          "internalType": "address",
          "name": "",
          "type": "address"
        }
      ],
      "stateMutability": "view",
      "type": "function"
    },
    {
      "inputs": [
        {
          "internalType": "uint256",
          "name": "_ETHDrawn",
          "type": "uint256"
        }
      ],
      "name": "callGetRedemptionFee",
      "outputs": [
        {
          "internalType": "uint256",
          "name": "",
          "type": "uint256"
        }
      ],
      "stateMutability": "view",
      "type": "function"
    },
    {
      "inputs": [
        {
          "internalType": "address",
          "name": "_troveOwner",
          "type": "address"
        }
      ],
      "name": "callInternalRemoveTroveOwner",
      "outputs": [],
      "stateMutability": "nonpayable",
      "type": "function"
    },
    {
      "inputs": [
        {
          "internalType": "uint256",
          "name": "_price",
          "type": "uint256"
        }
      ],
      "name": "checkRecoveryMode",
      "outputs": [
        {
          "internalType": "bool",
          "name": "",
          "type": "bool"
        }
      ],
      "stateMutability": "view",
      "type": "function"
    },
    {
      "inputs": [
        {
          "internalType": "address",
          "name": "_borrower",
          "type": "address"
        }
      ],
      "name": "closeTrove",
      "outputs": [],
      "stateMutability": "nonpayable",
      "type": "function"
    },
    {
      "inputs": [
        {
          "internalType": "uint256",
          "name": "_coll",
          "type": "uint256"
        },
        {
          "internalType": "uint256",
          "name": "_debt",
          "type": "uint256"
        },
        {
          "internalType": "uint256",
          "name": "_price",
          "type": "uint256"
        }
      ],
      "name": "computeICR",
      "outputs": [
        {
          "internalType": "uint256",
          "name": "",
          "type": "uint256"
        }
      ],
      "stateMutability": "pure",
      "type": "function"
    },
    {
      "inputs": [],
      "name": "decayBaseRateFromBorrowing",
      "outputs": [],
      "stateMutability": "nonpayable",
      "type": "function"
    },
    {
      "inputs": [
        {
          "internalType": "address",
          "name": "_borrower",
          "type": "address"
        },
        {
          "internalType": "uint256",
          "name": "_collDecrease",
          "type": "uint256"
        }
      ],
      "name": "decreaseTroveColl",
      "outputs": [
        {
          "internalType": "uint256",
          "name": "",
          "type": "uint256"
        }
      ],
      "stateMutability": "nonpayable",
      "type": "function"
    },
    {
      "inputs": [
        {
          "internalType": "address",
          "name": "_borrower",
          "type": "address"
        },
        {
          "internalType": "uint256",
          "name": "_debtDecrease",
          "type": "uint256"
        }
      ],
      "name": "decreaseTroveDebt",
      "outputs": [
        {
          "internalType": "uint256",
          "name": "",
          "type": "uint256"
        }
      ],
      "stateMutability": "nonpayable",
      "type": "function"
    },
    {
      "inputs": [],
      "name": "defaultPool",
      "outputs": [
        {
          "internalType": "contract IDefaultPool",
          "name": "",
          "type": "address"
        }
      ],
      "stateMutability": "view",
      "type": "function"
    },
    {
      "inputs": [
        {
          "internalType": "uint256",
          "name": "_debtVal",
          "type": "uint256"
        }
      ],
      "name": "getActualDebtFromComposite",
      "outputs": [
        {
          "internalType": "uint256",
          "name": "",
          "type": "uint256"
        }
      ],
      "stateMutability": "pure",
      "type": "function"
    },
    {
      "inputs": [
        {
          "internalType": "uint256",
          "name": "_LUSDDebt",
          "type": "uint256"
        }
      ],
      "name": "getBorrowingFee",
      "outputs": [
        {
          "internalType": "uint256",
          "name": "",
          "type": "uint256"
        }
      ],
      "stateMutability": "view",
      "type": "function"
    },
    {
      "inputs": [
        {
          "internalType": "uint256",
          "name": "_LUSDDebt",
          "type": "uint256"
        }
      ],
      "name": "getBorrowingFeeWithDecay",
      "outputs": [
        {
          "internalType": "uint256",
          "name": "",
          "type": "uint256"
        }
      ],
      "stateMutability": "view",
      "type": "function"
    },
    {
      "inputs": [],
      "name": "getBorrowingRate",
      "outputs": [
        {
          "internalType": "uint256",
          "name": "",
          "type": "uint256"
        }
      ],
      "stateMutability": "view",
      "type": "function"
    },
    {
      "inputs": [],
      "name": "getBorrowingRateWithDecay",
      "outputs": [
        {
          "internalType": "uint256",
          "name": "",
          "type": "uint256"
        }
      ],
      "stateMutability": "view",
      "type": "function"
    },
    {
      "inputs": [
        {
          "internalType": "uint256",
          "name": "_coll",
          "type": "uint256"
        }
      ],
      "name": "getCollGasCompensation",
      "outputs": [
        {
          "internalType": "uint256",
          "name": "",
          "type": "uint256"
        }
      ],
      "stateMutability": "pure",
      "type": "function"
    },
    {
      "inputs": [
        {
          "internalType": "uint256",
          "name": "_debt",
          "type": "uint256"
        }
      ],
      "name": "getCompositeDebt",
      "outputs": [
        {
          "internalType": "uint256",
          "name": "",
          "type": "uint256"
        }
      ],
      "stateMutability": "pure",
      "type": "function"
    },
    {
      "inputs": [
        {
          "internalType": "address",
          "name": "_borrower",
          "type": "address"
        },
        {
          "internalType": "uint256",
          "name": "_price",
          "type": "uint256"
        }
      ],
      "name": "getCurrentICR",
      "outputs": [
        {
          "internalType": "uint256",
          "name": "",
          "type": "uint256"
        }
      ],
      "stateMutability": "view",
      "type": "function"
    },
    {
      "inputs": [
        {
          "internalType": "address",
          "name": "_borrower",
          "type": "address"
        }
      ],
      "name": "getEntireDebtAndColl",
      "outputs": [
        {
          "internalType": "uint256",
          "name": "debt",
          "type": "uint256"
        },
        {
          "internalType": "uint256",
          "name": "coll",
          "type": "uint256"
        },
        {
          "internalType": "uint256",
          "name": "pendingLUSDDebtReward",
          "type": "uint256"
        },
        {
          "internalType": "uint256",
          "name": "pendingETHReward",
          "type": "uint256"
        }
      ],
      "stateMutability": "view",
      "type": "function"
    },
    {
      "inputs": [],
      "name": "getEntireSystemColl",
      "outputs": [
        {
          "internalType": "uint256",
          "name": "entireSystemColl",
          "type": "uint256"
        }
      ],
      "stateMutability": "view",
      "type": "function"
    },
    {
      "inputs": [],
      "name": "getEntireSystemDebt",
      "outputs": [
        {
          "internalType": "uint256",
          "name": "entireSystemDebt",
          "type": "uint256"
        }
      ],
      "stateMutability": "view",
      "type": "function"
    },
    {
      "inputs": [],
      "name": "getLUSDGasCompensation",
      "outputs": [
        {
          "internalType": "uint256",
          "name": "",
          "type": "uint256"
        }
      ],
      "stateMutability": "pure",
      "type": "function"
    },
    {
      "inputs": [
        {
          "internalType": "address",
          "name": "_borrower",
          "type": "address"
        }
      ],
      "name": "getNominalICR",
      "outputs": [
        {
          "internalType": "uint256",
          "name": "",
          "type": "uint256"
        }
      ],
      "stateMutability": "view",
      "type": "function"
    },
    {
      "inputs": [
        {
          "internalType": "address",
          "name": "_borrower",
          "type": "address"
        }
      ],
      "name": "getPendingETHReward",
      "outputs": [
        {
          "internalType": "uint256",
          "name": "",
          "type": "uint256"
        }
      ],
      "stateMutability": "view",
      "type": "function"
    },
    {
      "inputs": [
        {
          "internalType": "address",
          "name": "_borrower",
          "type": "address"
        }
      ],
      "name": "getPendingLUSDDebtReward",
      "outputs": [
        {
          "internalType": "uint256",
          "name": "",
          "type": "uint256"
        }
      ],
      "stateMutability": "view",
      "type": "function"
    },
    {
      "inputs": [
        {
          "internalType": "uint256",
          "name": "_ETHDrawn",
          "type": "uint256"
        }
      ],
      "name": "getRedemptionFeeWithDecay",
      "outputs": [
        {
          "internalType": "uint256",
          "name": "",
          "type": "uint256"
        }
      ],
      "stateMutability": "view",
      "type": "function"
    },
    {
      "inputs": [],
      "name": "getRedemptionRate",
      "outputs": [
        {
          "internalType": "uint256",
          "name": "",
          "type": "uint256"
        }
      ],
      "stateMutability": "view",
      "type": "function"
    },
    {
      "inputs": [],
      "name": "getRedemptionRateWithDecay",
      "outputs": [
        {
          "internalType": "uint256",
          "name": "",
          "type": "uint256"
        }
      ],
      "stateMutability": "view",
      "type": "function"
    },
    {
      "inputs": [
        {
          "internalType": "uint256",
          "name": "_price",
          "type": "uint256"
        }
      ],
      "name": "getTCR",
      "outputs": [
        {
          "internalType": "uint256",
          "name": "",
          "type": "uint256"
        }
      ],
      "stateMutability": "view",
      "type": "function"
    },
    {
      "inputs": [
        {
          "internalType": "address",
          "name": "_borrower",
          "type": "address"
        }
      ],
      "name": "getTroveColl",
      "outputs": [
        {
          "internalType": "uint256",
          "name": "",
          "type": "uint256"
        }
      ],
      "stateMutability": "view",
      "type": "function"
    },
    {
      "inputs": [
        {
          "internalType": "address",
          "name": "_borrower",
          "type": "address"
        }
      ],
      "name": "getTroveDebt",
      "outputs": [
        {
          "internalType": "uint256",
          "name": "",
          "type": "uint256"
        }
      ],
      "stateMutability": "view",
      "type": "function"
    },
    {
      "inputs": [
        {
          "internalType": "uint256",
          "name": "_index",
          "type": "uint256"
        }
      ],
      "name": "getTroveFromTroveOwnersArray",
      "outputs": [
        {
          "internalType": "address",
          "name": "",
          "type": "address"
        }
      ],
      "stateMutability": "view",
      "type": "function"
    },
    {
      "inputs": [],
      "name": "getTroveOwnersCount",
      "outputs": [
        {
          "internalType": "uint256",
          "name": "",
          "type": "uint256"
        }
      ],
      "stateMutability": "view",
      "type": "function"
    },
    {
      "inputs": [
        {
          "internalType": "address",
          "name": "_borrower",
          "type": "address"
        }
      ],
      "name": "getTroveStake",
      "outputs": [
        {
          "internalType": "uint256",
          "name": "",
          "type": "uint256"
        }
      ],
      "stateMutability": "view",
      "type": "function"
    },
    {
      "inputs": [
        {
          "internalType": "address",
          "name": "_borrower",
          "type": "address"
        }
      ],
      "name": "getTroveStatus",
      "outputs": [
        {
          "internalType": "uint256",
          "name": "",
          "type": "uint256"
        }
      ],
      "stateMutability": "view",
      "type": "function"
    },
    {
      "inputs": [
        {
          "internalType": "address",
          "name": "_borrower",
          "type": "address"
        }
      ],
      "name": "hasPendingRewards",
      "outputs": [
        {
          "internalType": "bool",
          "name": "",
          "type": "bool"
        }
      ],
      "stateMutability": "view",
      "type": "function"
    },
    {
      "inputs": [
        {
          "internalType": "address",
          "name": "_borrower",
          "type": "address"
        },
        {
          "internalType": "uint256",
          "name": "_collIncrease",
          "type": "uint256"
        }
      ],
      "name": "increaseTroveColl",
      "outputs": [
        {
          "internalType": "uint256",
          "name": "",
          "type": "uint256"
        }
      ],
      "stateMutability": "nonpayable",
      "type": "function"
    },
    {
      "inputs": [
        {
          "internalType": "address",
          "name": "_borrower",
          "type": "address"
        },
        {
          "internalType": "uint256",
          "name": "_debtIncrease",
          "type": "uint256"
        }
      ],
      "name": "increaseTroveDebt",
      "outputs": [
        {
          "internalType": "uint256",
          "name": "",
          "type": "uint256"
        }
      ],
      "stateMutability": "nonpayable",
      "type": "function"
    },
    {
      "inputs": [],
      "name": "isOwner",
      "outputs": [
        {
          "internalType": "bool",
          "name": "",
          "type": "bool"
        }
      ],
      "stateMutability": "view",
      "type": "function"
    },
    {
      "inputs": [],
      "name": "lastETHError_Redistribution",
      "outputs": [
        {
          "internalType": "uint256",
          "name": "",
          "type": "uint256"
        }
      ],
      "stateMutability": "view",
      "type": "function"
    },
    {
      "inputs": [],
      "name": "lastFeeOperationTime",
      "outputs": [
        {
          "internalType": "uint256",
          "name": "",
          "type": "uint256"
        }
      ],
      "stateMutability": "view",
      "type": "function"
    },
    {
      "inputs": [],
      "name": "lastLUSDDebtError_Redistribution",
      "outputs": [
        {
          "internalType": "uint256",
          "name": "",
          "type": "uint256"
        }
      ],
      "stateMutability": "view",
      "type": "function"
    },
    {
      "inputs": [
        {
          "internalType": "address",
          "name": "_borrower",
          "type": "address"
        }
      ],
      "name": "liquidate",
      "outputs": [],
      "stateMutability": "nonpayable",
      "type": "function"
    },
    {
      "inputs": [
        {
          "internalType": "uint256",
          "name": "_n",
          "type": "uint256"
        }
      ],
      "name": "liquidateTroves",
      "outputs": [],
      "stateMutability": "nonpayable",
      "type": "function"
    },
    {
      "inputs": [],
      "name": "lqtyStaking",
      "outputs": [
        {
          "internalType": "contract ILQTYStaking",
          "name": "",
          "type": "address"
        }
      ],
      "stateMutability": "view",
      "type": "function"
    },
    {
      "inputs": [],
      "name": "lqtyToken",
      "outputs": [
        {
          "internalType": "contract ILQTYToken",
          "name": "",
          "type": "address"
        }
      ],
      "stateMutability": "view",
      "type": "function"
    },
    {
      "inputs": [],
      "name": "lusdToken",
      "outputs": [
        {
          "internalType": "contract ILUSDToken",
          "name": "",
          "type": "address"
        }
      ],
      "stateMutability": "view",
      "type": "function"
    },
    {
      "inputs": [],
      "name": "minutesPassedSinceLastFeeOp",
      "outputs": [
        {
          "internalType": "uint256",
          "name": "",
          "type": "uint256"
        }
      ],
      "stateMutability": "view",
      "type": "function"
    },
    {
      "inputs": [],
      "name": "owner",
      "outputs": [
        {
          "internalType": "address",
          "name": "",
          "type": "address"
        }
      ],
      "stateMutability": "view",
      "type": "function"
    },
    {
      "inputs": [],
      "name": "priceFeed",
      "outputs": [
        {
          "internalType": "contract IPriceFeed",
          "name": "",
          "type": "address"
        }
      ],
      "stateMutability": "view",
      "type": "function"
    },
    {
      "inputs": [
        {
          "internalType": "uint256",
          "name": "_LUSDamount",
          "type": "uint256"
        },
        {
          "internalType": "address",
          "name": "_firstRedemptionHint",
          "type": "address"
        },
        {
          "internalType": "address",
          "name": "_upperPartialRedemptionHint",
          "type": "address"
        },
        {
          "internalType": "address",
          "name": "_lowerPartialRedemptionHint",
          "type": "address"
        },
        {
          "internalType": "uint256",
          "name": "_partialRedemptionHintNICR",
          "type": "uint256"
        },
        {
          "internalType": "uint256",
          "name": "_maxIterations",
          "type": "uint256"
        },
        {
          "internalType": "uint256",
          "name": "_maxFeePercentage",
          "type": "uint256"
        }
      ],
      "name": "redeemCollateral",
      "outputs": [],
      "stateMutability": "nonpayable",
      "type": "function"
    },
    {
      "inputs": [
        {
          "internalType": "address",
          "name": "_borrower",
          "type": "address"
        }
      ],
      "name": "removeStake",
      "outputs": [],
      "stateMutability": "nonpayable",
      "type": "function"
    },
    {
      "inputs": [
        {
          "internalType": "address",
          "name": "",
          "type": "address"
        }
      ],
      "name": "rewardSnapshots",
      "outputs": [
        {
          "internalType": "uint256",
          "name": "ETH",
          "type": "uint256"
        },
        {
          "internalType": "uint256",
          "name": "LUSDDebt",
          "type": "uint256"
        }
      ],
      "stateMutability": "view",
      "type": "function"
    },
    {
      "inputs": [
        {
          "internalType": "address",
          "name": "_borrowerOperationsAddress",
          "type": "address"
        },
        {
          "internalType": "address",
          "name": "_activePoolAddress",
          "type": "address"
        },
        {
          "internalType": "address",
          "name": "_defaultPoolAddress",
          "type": "address"
        },
        {
          "internalType": "address",
          "name": "_stabilityPoolAddress",
          "type": "address"
        },
        {
          "internalType": "address",
          "name": "_gasPoolAddress",
          "type": "address"
        },
        {
          "internalType": "address",
          "name": "_collSurplusPoolAddress",
          "type": "address"
        },
        {
          "internalType": "address",
          "name": "_priceFeedAddress",
          "type": "address"
        },
        {
          "internalType": "address",
          "name": "_lusdTokenAddress",
          "type": "address"
        },
        {
          "internalType": "address",
          "name": "_sortedTrovesAddress",
          "type": "address"
        },
        {
          "internalType": "address",
          "name": "_lqtyTokenAddress",
          "type": "address"
        },
        {
          "internalType": "address",
          "name": "_lqtyStakingAddress",
          "type": "address"
        }
      ],
      "name": "setAddresses",
      "outputs": [],
      "stateMutability": "nonpayable",
      "type": "function"
    },
    {
      "inputs": [
        {
          "internalType": "uint256",
          "name": "_baseRate",
          "type": "uint256"
        }
      ],
      "name": "setBaseRate",
      "outputs": [],
      "stateMutability": "nonpayable",
      "type": "function"
    },
    {
      "inputs": [],
      "name": "setLastFeeOpTimeToNow",
      "outputs": [],
      "stateMutability": "nonpayable",
      "type": "function"
    },
    {
      "inputs": [
        {
          "internalType": "address",
          "name": "_borrower",
          "type": "address"
        },
        {
          "internalType": "uint256",
          "name": "_num",
          "type": "uint256"
        }
      ],
      "name": "setTroveStatus",
      "outputs": [],
      "stateMutability": "nonpayable",
      "type": "function"
    },
    {
      "inputs": [],
      "name": "sortedTroves",
      "outputs": [
        {
          "internalType": "contract ISortedTroves",
          "name": "",
          "type": "address"
        }
      ],
      "stateMutability": "view",
      "type": "function"
    },
    {
      "inputs": [],
      "name": "stabilityPool",
      "outputs": [
        {
          "internalType": "contract IStabilityPool",
          "name": "",
          "type": "address"
        }
      ],
      "stateMutability": "view",
      "type": "function"
    },
    {
      "inputs": [],
      "name": "systemDeploymentTime",
      "outputs": [
        {
          "internalType": "uint256",
          "name": "",
          "type": "uint256"
        }
      ],
      "stateMutability": "view",
      "type": "function"
    },
    {
      "inputs": [],
      "name": "totalCollateralSnapshot",
      "outputs": [
        {
          "internalType": "uint256",
          "name": "",
          "type": "uint256"
        }
      ],
      "stateMutability": "view",
      "type": "function"
    },
    {
      "inputs": [],
      "name": "totalStakes",
      "outputs": [
        {
          "internalType": "uint256",
          "name": "",
          "type": "uint256"
        }
      ],
      "stateMutability": "view",
      "type": "function"
    },
    {
      "inputs": [],
      "name": "totalStakesSnapshot",
      "outputs": [
        {
          "internalType": "uint256",
          "name": "",
          "type": "uint256"
        }
      ],
      "stateMutability": "view",
      "type": "function"
    },
    {
      "inputs": [],
      "name": "unprotectedDecayBaseRateFromBorrowing",
      "outputs": [
        {
          "internalType": "uint256",
          "name": "",
          "type": "uint256"
        }
      ],
      "stateMutability": "nonpayable",
      "type": "function"
    },
    {
      "inputs": [
        {
          "internalType": "address",
          "name": "_borrower",
          "type": "address"
        }
      ],
      "name": "updateStakeAndTotalStakes",
      "outputs": [
        {
          "internalType": "uint256",
          "name": "",
          "type": "uint256"
        }
      ],
      "stateMutability": "nonpayable",
      "type": "function"
    },
    {
      "inputs": [
        {
          "internalType": "address",
          "name": "_borrower",
          "type": "address"
        }
      ],
      "name": "updateTroveRewardSnapshots",
      "outputs": [],
      "stateMutability": "nonpayable",
      "type": "function"
    }
  ],
  "bytecode": "0x608060405234801561001057600080fd5b50600380546001600160a01b031916339081179091556040516000907f8be0079c531659141344cd1fd0a4f28419497f9722a3daafe3b4186f6b6457e0908290a3615c9a80620000616000396000f3fe608060405234801561001057600080fd5b50600436106104ee5760003560e01c8063795d26c31161028e578063b91af97c11610167578063d5b35635116100d9578063e2ac77b011610092578063e2ac77b014610df6578063f34862de14610e1c578063f36b242514610e42578063f92d34331461072e578063fe2ba84814610e4a578063febb33de14610e70576104ee565b8063d5b3563514610d60578063d66a255314610d7d578063d9a7244414610da3578063da303f1414610dc0578063dba1c5f214610dc8578063dc62a70214610dd0576104ee565b8063c7b554811161012b578063c7b5548114610cca578063cbd138ae14610cd2578063d293c71014610cf8578063d380a37c14610d24578063d3d6f84314610d2c578063d5205e4814610d58576104ee565b8063b91af97c14610c18578063bcd3752614610c64578063bf9befb114610cb2578063c35bc55014610cba578063c52861f214610cc2576104ee565b80639976cf4511610200578063a537896f116101c4578063a537896f14610ba0578063ae91875414610bbd578063b0d8e18114610bc5578063b7f8cf9b14610beb578063b82f263d14610bf3578063b83f91a214610c10576104ee565b80639976cf4514610ae75780639dd233d214610b13578063a20baee6146109a7578063a3a6401714610b1b578063a3f4df7e14610b23576104ee565b8063814a0a4511610252578063814a0a4514610a7857806382fe3eb914610aa1578063887105d314610ac75780638da5cb5b14610acf5780638f32d59b14610ad757806396d711ff14610adf576104ee565b8063795d26c3146109dc578063797250e3146109e45780637985c5e4146109ec5780637f7dde4a14610a68578063807d138d14610a70576104ee565b8063477d66cf116103cb57806361ec893d1161033d578063720fbe2c116102f6578063720fbe2c1461097357806372423c171461097b57806372fe25aa146109a7578063741bef1a146109af578063756b253e146109b7578063794e5724146109d4576104ee565b806361ec893d14610894578063631203b01461089c57806364cee260146108b9578063653d46e7146108df57806366ca4a21146108fc5780636ef6433814610904576104ee565b80634ff814431161038f5780634ff81443146107f857806354062a45146108155780635733d58f146108325780635d6b480f1461083a5780635d8c9609146108665780635dba4c4a1461088c576104ee565b8063477d66cf14610774578063480cd578146107915780634870dd9a146107b757806349eefeee146107bf5780634e443d9e146107c7576104ee565b80631d08837b116104645780632409266911610428578063240926691461072657806328d28b5b1461072e5780632b11551a146107365780632e86bbd81461073e5780632f865568146107465780633cc742251461076c576104ee565b80631d08837b146106305780631e8b1c2b1461064d5780631f68f20a146106f05780631f7af3c3146106f857806321e3780114610700576104ee565b8063105bb15c116104b6578063105bb15c1461056957806312610e921461057157806315d549f11461059d5780631673c79a146105c357806318f2817a146106025780631bf4355514610628576104ee565b8063043782fb146104f3578063048c661d146104fd578063060d49a314610521578063071a75411461053b5780630b07655714610543575b600080fd5b6104fb610e8d565b005b610505610e93565b604080516001600160a01b039092168252519081900360200190f35b610529610ea2565b60408051918252519081900360200190f35b610529610ea8565b6104fb6004803603602081101561055957600080fd5b50356001600160a01b0316610ead565b610529610ed5565b6105296004803603604081101561058757600080fd5b506001600160a01b038135169060200135610ee4565b610529600480360360208110156105b357600080fd5b50356001600160a01b0316610f3c565b6105e9600480360360208110156105d957600080fd5b50356001600160a01b0316610f60565b6040805192835260208301919091528051918290030190f35b6105296004803603602081101561061857600080fd5b50356001600160a01b0316610f79565b610529610f8c565b6104fb6004803603602081101561064657600080fd5b5035610f99565b6104fb6004803603602081101561066357600080fd5b81019060208101813564010000000081111561067e57600080fd5b82018360208201111561069057600080fd5b803590602001918460208302840111640100000000831117156106b257600080fd5b919080806020026020016040519081016040528093929190818152602001838360200280828437600092019190915250929550610f9e945050505050565b610529611340565b610505611346565b6105296004803603602081101561071657600080fd5b50356001600160a01b0316611355565b61052961137f565b610529611392565b6105296113a3565b6105296113b0565b6104fb6004803603602081101561075c57600080fd5b50356001600160a01b03166113bd565b610505611423565b6105296004803603602081101561078a57600080fd5b5035611432565b610529600480360360208110156107a757600080fd5b50356001600160a01b0316611445565b610529611463565b610529611468565b6107e4600480360360208110156107dd57600080fd5b503561146e565b604080519115158252519081900360200190f35b6105296004803603602081101561080e57600080fd5b5035611479565b6105296004803603602081101561082b57600080fd5b5035611484565b61052961148f565b6104fb6004803603604081101561085057600080fd5b506001600160a01b03813516906020013561149b565b6105296004803603602081101561087c57600080fd5b50356001600160a01b03166114e7565b6104fb6115ad565b610529611613565b610529600480360360208110156108b257600080fd5b5035611618565b610529600480360360208110156108cf57600080fd5b50356001600160a01b0316611625565b6104fb600480360360208110156108f557600080fd5b5035611643565b6105296119f1565b61092a6004803603602081101561091a57600080fd5b50356001600160a01b0316611a03565b6040518086815260200185815260200184815260200183600481111561094c57fe5b60ff1681526001600160801b03909216602083015250604080519182900301945092505050f35b610529611a3d565b6105296004803603604081101561099157600080fd5b506001600160a01b038135169060200135611a43565b610529611aa0565b610505611aac565b610505600480360360208110156109cd57600080fd5b5035611abb565b610529611ae2565b610529611aee565b610529611bef565b6104fb6004803603610160811015610a0357600080fd5b506001600160a01b038135811691602081013582169160408201358116916060810135821691608082013581169160a081013582169160c082013581169160e08101358216916101008201358116916101208101358216916101409091013516611bf5565b610505611ff2565b610529612001565b61052960048036036060811015610a8e57600080fd5b5080359060208101359060400135612007565b6104fb60048036036020811015610ab757600080fd5b50356001600160a01b031661201e565b61052961202f565b6105056120eb565b6107e46120fa565b61052961210b565b61052960048036036040811015610afd57600080fd5b506001600160a01b038135169060200135612111565b610529612144565b61050561214a565b610b2b612159565b6040805160208082528351818301528351919283929083019185019080838360005b83811015610b65578181015183820152602001610b4d565b50505050905090810190601f168015610b925780820380516001836020036101000a031916815260200191505b509250505060405180910390f35b61052960048036036020811015610bb657600080fd5b5035612181565b61050561218c565b61052960048036036020811015610bdb57600080fd5b50356001600160a01b031661219b565b6105056121c2565b61052960048036036020811015610c0957600080fd5b50356121d1565b6105056121dc565b610c3e60048036036020811015610c2e57600080fd5b50356001600160a01b03166121eb565b604080519485526020850193909352838301919091526060830152519081900360800190f35b6104fb600480360360e0811015610c7a57600080fd5b508035906001600160a01b03602082013581169160408101358216916060820135169060808101359060a08101359060c0013561224f565b6105296129f1565b6105296129f7565b6105296129fe565b610529612a10565b6104fb60048036036020811015610ce857600080fd5b50356001600160a01b0316612a1c565b61052960048036036040811015610d0e57600080fd5b506001600160a01b038135169060200135612a2f565b610529612a4e565b61052960048036036040811015610d4257600080fd5b506001600160a01b038135169060200135612a54565b610529612a8a565b61052960048036036020811015610d7657600080fd5b5035612a97565b61052960048036036020811015610d9357600080fd5b50356001600160a01b0316612aaa565b61050560048036036020811015610db957600080fd5b5035612ac5565b610529612aef565b610529612b1f565b6104fb60048036036020811015610de657600080fd5b50356001600160a01b0316612b25565b6107e460048036036020811015610e0c57600080fd5b50356001600160a01b0316612b32565b61052960048036036020811015610e3257600080fd5b50356001600160a01b0316612b90565b610529612bc1565b6104fb60048036036020811015610e6057600080fd5b50356001600160a01b0316612bce565b61052960048036036020811015610e8657600080fd5b5035612bdf565b42600e55565b6005546001600160a01b031681565b60185481565b600281565b610eb5612bf0565b600054600154610ed2916001600160a01b03908116911683612c3b565b50565b6000610edf612d5d565b905090565b6000610eee612bf0565b6001600160a01b0383166000908152600f6020526040812054610f17908463ffffffff612d7916565b6001600160a01b0385166000908152600f602052604090208190559150505b92915050565b6000610f46612bf0565b610f4f82612dbb565b6001600160801b031690505b919050565b6015602052600090815260409020805460019091015482565b6000610f83612bf0565b610f3682612e55565b686194049f30f720000081565b600d55565b8051610fdb5760405162461bcd60e51b8152600401808060200182810382526036815260200180615b206036913960400191505060405180910390fd5b6000546001546005546001600160a01b03928316929182169116610ffd615818565b611005615849565b600260009054906101000a90046001600160a01b03166001600160a01b0316630fdb11cf6040518163ffffffff1660e01b8152600401602060405180830381600087803b15801561105557600080fd5b505af1158015611069573d6000803e3d6000fd5b505050506040513d602081101561107f57600080fd5b50518252604080516326fcbc6b60e21b815290516001600160a01b03851691639bf2f1ac916004808301926020929190829003018186803b1580156110c357600080fd5b505afa1580156110d7573d6000803e3d6000fd5b505050506040513d60208110156110ed57600080fd5b5051602083015281516110ff90612f04565b1580156040840152611127576111208585846000015185602001518a612f21565b905061113f565b61113c8585846000015185602001518a613151565b90505b60008160200151116111825760405162461bcd60e51b8152600401808060200182810382526022815260200180615c146022913960400191505060405180910390fd5b826001600160a01b031663335525ad82608001518360a001516040518363ffffffff1660e01b81526004018083815260200182815260200192505050600060405180830381600087803b1580156111d857600080fd5b505af11580156111ec573d6000803e3d6000fd5b5050505061120485858360c001518460e00151613219565b6101008101511561128357600754610100820151604080516364a197f360e01b81526001600160a01b039384166004820152602481019290925251918716916364a197f39160448082019260009290919082900301818387803b15801561126a57600080fd5b505af115801561127e573d6000803e3d6000fd5b505050505b61129185826040015161349a565b60208101516060830152610100810151604082015182516112c992916112bd919063ffffffff612d7916565b9063ffffffff612d7916565b608080840182905260608085015160408086015186840151825193845260208401969096528282015291810193909352517f4152c73dd2614c4f9fc35e8c9cf16013cd588c75b49a4c1673ecffdcbcda94039281900390910190a16113388533836060015184604001516135e1565b505050505050565b600d5481565b6009546001600160a01b031681565b6001600160a01b0381166000908152600f602052604081206003015460ff166004811115610f3657fe5b6064670de0b6b3a76400005b0460050281565b6103e8670de0b6b3a764000061138b565b6000610edf600d546136e4565b680ad78ebc5ac620000081565b6113c68161371a565b6040805160018082528183019092526060916020808301908036833701905050905081816000815181106113f657fe5b60200260200101906001600160a01b031690816001600160a01b03168152505061141f81610f9e565b5050565b6001546001600160a01b031681565b6000610f3661143f6119f1565b83613782565b6001600160a01b03166000908152600f602052604090206001015490565b60c881565b60165490565b6000610f3682612f04565b6000610f36826137a0565b6000610f36826137bb565b6714d1120d7b16000081565b6114a3612bf0565b8060048111156114af57fe5b6001600160a01b0383166000908152600f60205260409020600301805460ff191660018360048111156114de57fe5b02179055505050565b6001600160a01b0381166000908152601560205260408120546013548290611515908363ffffffff612d7916565b905080158061154e575060016001600160a01b0385166000908152600f602052604090206003015460ff16600481111561154b57fe5b14155b1561155e57600092505050610f5b565b6001600160a01b0384166000908152600f6020526040812060020154906115a3670de0b6b3a7640000611597848663ffffffff6137d616565b9063ffffffff61382f16565b9695505050505050565b6115b5612bf0565b60006115bf613871565b9050670de0b6b3a76400008111156115d357fe5b600d8190556040805182815290517fc454ee9b76c52f782a256af821b857ca6e125d1e3333bcede402fec2bed9600c9181900360200190a1610ed26138b5565b603c81565b6000610f3661143f612bc1565b6001600160a01b03166000908152600f602052604090206002015490565b61164b615895565b506040805160e081018252600080546001600160a01b0390811683526001548116602084015292820181905260608201819052600b548316608083015260a0820181905260c08201526005549091166116a2615818565b6116aa615849565b600260009054906101000a90046001600160a01b03166001600160a01b0316630fdb11cf6040518163ffffffff1660e01b8152600401602060405180830381600087803b1580156116fa57600080fd5b505af115801561170e573d6000803e3d6000fd5b505050506040513d602081101561172457600080fd5b50518252604080516326fcbc6b60e21b815290516001600160a01b03851691639bf2f1ac916004808301926020929190829003018186803b15801561176857600080fd5b505afa15801561177c573d6000803e3d6000fd5b505050506040513d602081101561179257600080fd5b5051602083015281516117a490612f04565b15801560408401526117cb576117c4848360000151846020015188613911565b90506117eb565b6117e8846000015185602001518460000151856020015189613cac565b90505b600081602001511161182e5760405162461bcd60e51b8152600401808060200182810382526022815260200180615c146022913960400191505060405180910390fd5b826001600160a01b031663335525ad82608001518360a001516040518363ffffffff1660e01b81526004018083815260200182815260200192505050600060405180830381600087803b15801561188457600080fd5b505af1158015611898573d6000803e3d6000fd5b505050506118b8846000015185602001518360c001518460e00151613219565b61010081015115611939578351600754610100830151604080516364a197f360e01b81526001600160a01b03938416600482015260248101929092525191909216916364a197f391604480830192600092919082900301818387803b15801561192057600080fd5b505af1158015611934573d6000803e3d6000fd5b505050505b61194b8460000151826040015161349a565b602081015160608301526101008101516040820151825161197792916112bd919063ffffffff612d7916565b608080840182905260608085015160408086015186840151825193845260208401969096528282015291810193909352517f4152c73dd2614c4f9fc35e8c9cf16013cd588c75b49a4c1673ecffdcbcda94039281900390910190a16119ea846000015133836060015184604001516135e1565b5050505050565b6000610edf6119fe613871565b613dde565b600f6020526000908152604090208054600182015460028301546003909301549192909160ff81169061010090046001600160801b031685565b600c5481565b6000611a4d612bf0565b6001600160a01b0383166000908152600f6020526040812060010154611a79908463ffffffff613e0516565b6001600160a01b0385166000908152600f6020526040902060010181905591505092915050565b670de0b6b3a764000081565b6002546001600160a01b031681565b60168181548110611ac857fe5b6000918252602090912001546001600160a01b0316905081565b670f43fc2c04ee000081565b6000805460408051632f5a97e560e11b8152905183926001600160a01b031691635eb52fca916004808301926020929190829003018186803b158015611b3357600080fd5b505afa158015611b47573d6000803e3d6000fd5b505050506040513d6020811015611b5d57600080fd5b505160015460408051632f5a97e560e11b815290519293506000926001600160a01b0390921691635eb52fca91600480820192602092909190829003018186803b158015611baa57600080fd5b505afa158015611bbe573d6000803e3d6000fd5b505050506040513d6020811015611bd457600080fd5b50519050611be8828263ffffffff613e0516565b9250505090565b60175481565b611bfd6120fa565b611c4e576040805162461bcd60e51b815260206004820181905260248201527f4f776e61626c653a2063616c6c6572206973206e6f7420746865206f776e6572604482015290519081900360640190fd5b611c578b613e5f565b611c608a613e5f565b611c6989613e5f565b611c7288613e5f565b611c7b87613e5f565b611c8486613e5f565b611c8d85613e5f565b611c9684613e5f565b611c9f83613e5f565b611ca882613e5f565b611cb181613e5f565b600480546001600160a01b03199081166001600160a01b038e81169182179093556000805483168e85161790556001805483168d85161790556005805483168c85161790556006805483168b85161790556007805483168a8516179055600280548316898516179055600880548316888516179055600b80548316878516179055600980548316868516179055600a805490921692841692909217905560408051918252517f3ca631ffcd2a9b5d9ae18543fc82f58eb4ca33af9e6ab01b7a8e95331e6ed985916020908290030190a1604080516001600160a01b038c16815290517f78f058b189175430c48dc02699e3a0031ea4ff781536dc2fab847de4babdd8829181900360200190a1604080516001600160a01b038b16815290517f5ee0cae2f063ed938bb55046f6a932fb6ae792bf43624806bb90abe68a50be9b9181900360200190a1604080516001600160a01b038a16815290517f82966d27eea39b038ee0fa30cd16532bb24f6e65d31cb58fb227aa5766cdcc7f9181900360200190a1604080516001600160a01b038916815290517fcfb07d791fcafc032b35837b50eb84b74df518cf4cc287e8084f47630fa70fa09181900360200190a1604080516001600160a01b038816815290517fe67f36a6e961157d6eff83b91f3af5a62131ceb6f04954ef74f51c1c05e7f88d9181900360200190a1604080516001600160a01b038716815290517f8c537274438aa850a330284665d81a85dd38267d09e4050d416bfc94142db2649181900360200190a1604080516001600160a01b038616815290517f227eec0ec317af6ab1a9587ffa1c84332522eb4c583a908f89babc05f8f339bd9181900360200190a1604080516001600160a01b038516815290517f65f4cf077bc01e4742eb5ad98326f6e95b63548ea24b17f8d5e823111fe788009181900360200190a1604080516001600160a01b038416815290517f2ac6e99201ddc1b6eac6f8f28662d1ecafee131f6eb98c29de54528a9888a7d19181900360200190a1604080516001600160a01b038316815290517f756ebc192164c295bba134b5aacd72cc7aff8098a670d1f0a5f6b3a0b4ce67079181900360200190a1611fe1613f0e565b505042600c55505050505050505050565b6000546001600160a01b031681565b60115481565b6000612014848484613f58565b90505b9392505050565b612026612bf0565b610ed281613f88565b6000805460408051630a7b61df60e11b8152905183926001600160a01b0316916314f6c3be916004808301926020929190829003018186803b15801561207457600080fd5b505afa158015612088573d6000803e3d6000fd5b505050506040513d602081101561209e57600080fd5b505160015460408051630a7b61df60e11b815290519293506000926001600160a01b03909216916314f6c3be91600480820192602092909190829003018186803b158015611baa57600080fd5b6003546001600160a01b031690565b6003546001600160a01b0316331490565b60125481565b600061211b612bf0565b6001600160a01b0383166000908152600f6020526040812054610f17908463ffffffff613e0516565b60135481565b600a546001600160a01b031681565b6040518060400160405280600c81526020016b2a3937bb32a6b0b730b3b2b960a11b81525081565b6000610f3682613ff3565b600b546001600160a01b031681565b60008060006121a984613ffa565b9150915060006121b98383614080565b95945050505050565b6004546001600160a01b031681565b6000610f36826140b5565b6008546001600160a01b031681565b6001600160a01b0381166000908152600f60205260408120805460019091015490918061221785612b90565b9150612222856114e7565b9050612234848363ffffffff613e0516565b9350612246838263ffffffff613e0516565b92509193509193565b612257615895565b506040805160e0810182526000546001600160a01b03908116825260015481166020830152600854811692820192909252600a5482166060820152600b5482166080820152600754821660a082015260065490911660c08201526122b96158d1565b6122c2836140e1565b6122ca61413b565b600260009054906101000a90046001600160a01b03166001600160a01b0316630fdb11cf6040518163ffffffff1660e01b8152600401602060405180830381600087803b15801561231a57600080fd5b505af115801561232e573d6000803e3d6000fd5b505050506040513d602081101561234457600080fd5b505160c082018190526123569061418f565b61235f896141de565b61236e8260400151338b61421d565b612376611aee565b60e0820181905260408084015181516370a0823160e01b815233600482015291516001600160a01b03909116916370a08231916024808301926020929190829003018186803b1580156123c857600080fd5b505afa1580156123dc573d6000803e3d6000fd5b505050506040513d60208110156123f257600080fd5b505111156123fc57fe5b888152608082015160c0820151600091612417918b906142dd565b1561242357508761254d565b82608001516001600160a01b0316634d6228316040518163ffffffff1660e01b815260040160206040518083038186803b15801561246057600080fd5b505afa158015612474573d6000803e3d6000fd5b505050506040513d602081101561248a57600080fd5b505190505b6001600160a01b038116158015906124bb5750670f43fc2c04ee00006124b9828460c00151612a2f565b105b1561254d5782608001516001600160a01b031663b72703ac826040518263ffffffff1660e01b815260040180826001600160a01b03166001600160a01b0316815260200191505060206040518083038186803b15801561251a57600080fd5b505afa15801561252e573d6000803e3d6000fd5b505050506040513d602081101561254457600080fd5b5051905061248f565b846125585760001994505b6001600160a01b038116158015906125705750815115155b801561257c5750600085115b156126b057848060019003955050600083608001516001600160a01b031663b72703ac836040518263ffffffff1660e01b815260040180826001600160a01b03166001600160a01b0316815260200191505060206040518083038186803b1580156125e657600080fd5b505afa1580156125fa573d6000803e3d6000fd5b505050506040513d602081101561261057600080fd5b5051845160208601519192506126269184612c3b565b61262e615916565b612645858486600001518760c001518e8e8e614450565b90508060400151156126585750506126b0565b8051602085015161266e9163ffffffff613e0516565b602080860191909152810151604085015161268e9163ffffffff613e0516565b6040850152805184516126a69163ffffffff612d7916565b8452509050612558565b60008260400151116126f35760405162461bcd60e51b81526004018080602001828103825260298152602001806159c36029913960400191505060405180910390fd5b61270a82604001518360c001518460e00151614703565b5061271882604001516147ab565b60608301819052604083015161272f9190866147b8565b82600001516001600160a01b03166364a197f3846060015184606001516040518363ffffffff1660e01b815260040180836001600160a01b03166001600160a01b0316815260200182815260200192505050600060405180830381600087803b15801561279b57600080fd5b505af11580156127af573d6000803e3d6000fd5b5050505082606001516001600160a01b0316631e3e2a1a83606001516040518263ffffffff1660e01b815260040180828152602001915050600060405180830381600087803b15801561280157600080fd5b505af1158015612815573d6000803e3d6000fd5b505050506060820151604083015161282c91612d79565b8260800181815250507f43a3f4082a4dbc33d78e317d2497d3a730bc7fc3574159dcea1056e62e5d9ad88a8360200151846040015185606001516040518085815260200184815260200183815260200182815260200194505050505060405180910390a182604001516001600160a01b0316639dc29fac3384602001516040518363ffffffff1660e01b815260040180836001600160a01b03166001600160a01b0316815260200182815260200192505050600060405180830381600087803b1580156128f857600080fd5b505af115801561290c573d6000803e3d6000fd5b5050505082600001516001600160a01b03166338d995a883602001516040518263ffffffff1660e01b815260040180828152602001915050600060405180830381600087803b15801561295e57600080fd5b505af1158015612972573d6000803e3d6000fd5b505084516080850151604080516364a197f360e01b81523360048201526024810192909252516001600160a01b0390921693506364a197f3925060448082019260009290919082900301818387803b1580156129cd57600080fd5b505af11580156129e1573d6000803e3d6000fd5b5050505050505050505050505050565b60105481565b6212750081565b6000610edf612a0b613871565b6136e4565b670ddd4b8c6c7d70d881565b612a24612bf0565b610ed281600261482d565b6000806000612a3d85613ffa565b9150915060006115a3838387613f58565b600e5481565b6000612a5e612bf0565b6001600160a01b0383166000908152600f6020526040812060010154611a79908463ffffffff612d7916565b680ad78ebc5ac620000090565b6000610f36612aa46129fe565b83614946565b6001600160a01b03166000908152600f602052604090205490565b600060168281548110612ad457fe5b6000918252602090912001546001600160a01b031692915050565b6000612af9613871565b600d55670de0b6b3a7640000600d541115612b1057fe5b612b186138b5565b50600d5490565b60145481565b60165461141f82826149a5565b600060016001600160a01b0383166000908152600f602052604090206003015460ff166004811115612b6057fe5b14612b6d57506000610f5b565b506013546001600160a01b03821660009081526015602052604090205410919050565b6001600160a01b0381166000908152601560205260408120600101546014548290611515908363ffffffff612d7916565b6000610edf600d54613dde565b612bd6612bf0565b610ed281614b4c565b6000612bea826147ab565b50919050565b6004546001600160a01b03163314612c395760405162461bcd60e51b815260040180806020018281038252603b815260200180615ae5603b913960400191505060405180910390fd5b565b612c4481612b32565b15612d5857612c528161371a565b6000612c5d826114e7565b90506000612c6a83612b90565b6001600160a01b0384166000908152600f6020526040902060010154909150612c99908363ffffffff613e0516565b6001600160a01b0384166000908152600f60205260409020600181019190915554612cca908263ffffffff613e0516565b6001600160a01b0384166000908152600f6020526040902055612cec83613f88565b612cf885858385614b9c565b6001600160a01b0383166000818152600f60209081526040808320805460018201546002909201548351918252938101919091528082019290925260608201929092529051600080516020615ac58339815191529181900360800190a250505b505050565b6000610edf603c611597600e5442612d7990919063ffffffff16565b600061201783836040518060400160405280601e81526020017f536166654d6174683a207375627472616374696f6e206f766572666c6f770000815250614c9e565b601680546001808201835560008381527fd833147d7dc355ba459fc788f669e58cfaf9dc25ddcd0702e87d69c7b512428990920180546001600160a01b0319166001600160a01b03861617905591549091612e169190612d79565b6001600160a01b03929092166000908152600f602052604090206003018054610100600160881b0319166101006001600160801b038516021790555090565b6001600160a01b0381166000908152600f60205260408120600101548190612e7c90614d35565b6001600160a01b0384166000908152600f6020526040902060020180549082905560105491925090612ec6908390612eba908463ffffffff612d7916565b9063ffffffff613e0516565b601081905560408051918252517f6bac5e0eb3c44eb03a60ab11ec3a2c051771616aecadbcfff2630aabae5203829181900360200190a15092915050565b600080612f10836140b5565b6714d1120d7b160000119392505050565b612f29615849565b612f31615939565b612f39615849565b84825260006080830152612f4b611aee565b60a0830152612f5861202f565b60c0830152600060208301525b8351826020015110156131465783826020015181518110612f8257fe5b6020908102919091018101516001600160a01b0316606084018190526000908152600f909152604090206003015460019060ff166004811115612fc157fe5b14612fcb57613136565b612fd9826060015187612a2f565b604083015260808201516130d857670f43fc2c04ee000082604001511015801561300257508151155b1561300c57613136565b60006130218360c001518460a0015189613f58565b905061303e8989856060015186604001518760000151868d614d71565b60808101518451919350613058919063ffffffff612d7916565b8352608082015160a08401516130739163ffffffff612d7916565b8360a00181815250506130a88261010001516112bd84604001516112bd8660a001518860c00151612d7990919063ffffffff16565b60c08401526130b784836150a4565b93506130cc8360c001518460a00151896151bb565b15608084015250613136565b816080015180156130f45750670f43fc2c04ee00008260400151105b156131365761310d8888846060015185600001516151dc565b60808101518351919250613127919063ffffffff612d7916565b825261313383826150a4565b92505b6020820180516001019052612f65565b505095945050505050565b613159615849565b613161615939565b613169615849565b848252600060208301525b835182602001511015613146578382602001518151811061319157fe5b60209081029190910101516001600160a01b0316606083018190526131b69087612a2f565b60408301819052670f43fc2c04ee00001115613209576131e08888846060015185600001516151dc565b608081015183519192506131fa919063ffffffff612d7916565b825261320683826150a4565b92505b6020820180516001019052613174565b8161322357613494565b60175460009061324590612eba84670de0b6b3a764000063ffffffff6137d616565b9050600061326a601854612eba670de0b6b3a7640000876137d690919063ffffffff16565b905060006132836010548461382f90919063ffffffff16565b9050600061329c6010548461382f90919063ffffffff16565b90506132c36132b6601054846137d690919063ffffffff16565b859063ffffffff612d7916565b6017556010546132eb906132de90839063ffffffff6137d616565b849063ffffffff612d7916565b601855601354613301908363ffffffff613e0516565b601355601454613317908263ffffffff613e0516565b601481905560135460408051918252602082019290925281517f9f8bc8ab0daf5bceef75ecfd2085d1fcc6548c657ea970d9a23a60610d0737e3929181900390910190a1876001600160a01b03166338d995a8876040518263ffffffff1660e01b815260040180828152602001915050600060405180830381600087803b1580156133a157600080fd5b505af11580156133b5573d6000803e3d6000fd5b50505050866001600160a01b031663cfb9329a876040518263ffffffff1660e01b815260040180828152602001915050600060405180830381600087803b1580156133ff57600080fd5b505af1158015613413573d6000803e3d6000fd5b50505050876001600160a01b03166364a197f388876040518363ffffffff1660e01b815260040180836001600160a01b03166001600160a01b0316815260200182815260200192505050600060405180830381600087803b15801561347757600080fd5b505af115801561348b573d6000803e3d6000fd5b50505050505050505b50505050565b6010546011819055506000826001600160a01b03166314f6c3be6040518163ffffffff1660e01b815260040160206040518083038186803b1580156134de57600080fd5b505afa1580156134f2573d6000803e3d6000fd5b505050506040513d602081101561350857600080fd5b505160015460408051630a7b61df60e11b815290519293506000926001600160a01b03909216916314f6c3be91600480820192602092909190829003018186803b15801561355557600080fd5b505afa158015613569573d6000803e3d6000fd5b505050506040513d602081101561357f57600080fd5b5051905061359781612eba848663ffffffff612d7916565b601281905560115460408051918252602082019290925281517f51bf4c63ec3cba9d03d43238abbdd979dd91bd16d9895c74ceea9118c7baaf60929181900390910190a150505050565b81156136605760085460065460408051631062c15f60e11b81526001600160a01b039283166004820152868316602482015260448101869052905191909216916320c582be91606480830192600092919082900301818387803b15801561364757600080fd5b505af115801561365b573d6000803e3d6000fd5b505050505b801561349457836001600160a01b03166364a197f384836040518363ffffffff1660e01b815260040180836001600160a01b03166001600160a01b0316815260200182815260200192505050600060405180830381600087803b1580156136c657600080fd5b505af11580156136da573d6000803e3d6000fd5b5050505050505050565b6000610f3661370c836103e8670de0b6b3a76400005b04600502613e0590919063ffffffff16565b670de0b6b3a764000061534b565b60016001600160a01b0382166000908152600f602052604090206003015460ff16600481111561374657fe5b14610ed25760405162461bcd60e51b815260040180806020018281038252602f815260200180615c36602f913960400191505060405180910390fd5b6000612017670de0b6b3a7640000611597858563ffffffff6137d616565b6000610f3682680ad78ebc5ac620000063ffffffff613e0516565b6000610f3682680ad78ebc5ac620000063ffffffff612d7916565b6000826137e557506000610f36565b828202828482816137f257fe5b04146120175760405162461bcd60e51b8152600401808060200182810382526021815260200180615a566021913960400191505060405180910390fd5b600061201783836040518060400160405280601a81526020017f536166654d6174683a206469766973696f6e206279207a65726f000000000000815250615361565b60008061387c612d5d565b90506000613892670ddd4b8c6c7d70d8836153c6565b9050611be8670de0b6b3a764000061159783600d546137d690919063ffffffff16565b60006138cc600e5442612d7990919063ffffffff16565b9050603c8110610ed25742600e81905560408051918252517f860f8d2f0c74dd487e89e2883e3b25b8159ce1e1b3433a291cba7b82c508f3bc9181900360200190a150565b613919615849565b613921615939565b613929615849565b8482526000608083015261393b611aee565b60a083015261394861202f565b8260c001818152505086608001516001600160a01b0316634d6228316040518163ffffffff1660e01b815260040160206040518083038186803b15801561398e57600080fd5b505afa1580156139a2573d6000803e3d6000fd5b505050506040513d60208110156139b857600080fd5b50516001600160a01b039081166060840152608088015160408051631e22314360e01b815290516000939290921691631e22314391600480820192602092909190829003018186803b158015613a0d57600080fd5b505afa158015613a21573d6000803e3d6000fd5b505050506040513d6020811015613a3757600080fd5b50516000602085015290505b848360200151108015613a6c5750806001600160a01b031683606001516001600160a01b031614155b15613ca157600088608001516001600160a01b031663b72703ac85606001516040518263ffffffff1660e01b815260040180826001600160a01b03166001600160a01b0316815260200191505060206040518083038186803b158015613ad157600080fd5b505afa158015613ae5573d6000803e3d6000fd5b505050506040513d6020811015613afb57600080fd5b50516060850151909150613b0f9089612a2f565b60408501526080840151613c1357670f43fc2c04ee0000846040015110158015613b3857508351155b15613b435750613ca1565b6000613b588560c001518660a001518b613f58565b8a5160208c0151606088015160408901518951949550613b7994868f614d71565b60808101518651919550613b93919063ffffffff612d7916565b8552608084015160a0860151613bae9163ffffffff612d7916565b8560a0018181525050613be38461010001516112bd86604001516112bd8860a001518a60c00151612d7990919063ffffffff16565b60c0860152613bf286856150a4565b9550613c078560c001518660a001518b6151bb565b15608086015250613c83565b83608001518015613c2f5750670f43fc2c04ee00008460400151105b15613c7d57613c5089600001518a60200151866060015187600001516151dc565b60808101518551919450613c6a919063ffffffff612d7916565b8452613c7685846150a4565b9450613c83565b50613ca1565b6001600160a01b031660608401526020830180516001019052613a43565b505050949350505050565b613cb4615849565b613cbc615939565b613cc4615849565b600b54858352600060208401526001600160a01b03165b8483602001511015613dd257806001600160a01b0316634d6228316040518163ffffffff1660e01b815260040160206040518083038186803b158015613d2057600080fd5b505afa158015613d34573d6000803e3d6000fd5b505050506040513d6020811015613d4a57600080fd5b50516001600160a01b031660608401819052613d669088612a2f565b60408401819052670f43fc2c04ee00001115613dbd57613d908989856060015186600001516151dc565b60808101518451919350613daa919063ffffffff612d7916565b8352613db684836150a4565b9350613dc2565b613dd2565b6020830180516001019052613cdb565b50505095945050505050565b6000610f36613df8836103e8670de0b6b3a76400006136fa565b66b1a2bc2ec5000061534b565b600082820183811015612017576040805162461bcd60e51b815260206004820152601b60248201527f536166654d6174683a206164646974696f6e206f766572666c6f770000000000604482015290519081900360640190fd5b6001600160a01b038116613eba576040805162461bcd60e51b815260206004820152601e60248201527f4163636f756e742063616e6e6f74206265207a65726f20616464726573730000604482015290519081900360640190fd5b803b8061141f576040805162461bcd60e51b815260206004820181905260248201527f4163636f756e7420636f64652073697a652063616e6e6f74206265207a65726f604482015290519081900360640190fd5b6003546040516000916001600160a01b0316907f8be0079c531659141344cd1fd0a4f28419497f9722a3daafe3b4186f6b6457e0908390a3600380546001600160a01b0319169055565b60008215613f7f576000613f7684611597878663ffffffff6137d616565b91506120179050565b50600019612017565b601380546001600160a01b0383166000908152601560209081526040918290209283556014546001909301839055925481519081529283019190915280517fc437f324d85e369394148dd9d62f98f534b382e01ed3dd2eb98138fb6d3ab49a9281900390910190a150565b60c8900490565b6000806000614008846114e7565b9050600061401585612b90565b6001600160a01b0386166000908152600f602052604081206001015491925090614045908463ffffffff613e0516565b6001600160a01b0387166000908152600f602052604081205491925090614072908463ffffffff613e0516565b919550909350505050915091565b600081156140ac576140a5826115978568056bc75e2d6310000063ffffffff6137d616565b9050610f36565b50600019610f36565b6000806140c061202f565b905060006140cc611aee565b90506140d9828286613f58565b949350505050565b6611c37937e0800081108015906141005750670de0b6b3a76400008111155b610ed25760405162461bcd60e51b8152600401808060200182810382526030815260200180615bba6030913960400191505060405180910390fd5b600c54614151906212750063ffffffff613e0516565b421015612c395760405162461bcd60e51b8152600401808060200182810382526040815260200180615a166040913960400191505060405180910390fd5b670f43fc2c04ee00006141a1826140b5565b1015610ed25760405162461bcd60e51b815260040180806020018281038252602a815260200180615bea602a913960400191505060405180910390fd5b60008111610ed25760405162461bcd60e51b815260040180806020018281038252602e815260200180615b56602e913960400191505060405180910390fd5b80836001600160a01b03166370a08231846040518263ffffffff1660e01b815260040180826001600160a01b03166001600160a01b0316815260200191505060206040518083038186803b15801561427457600080fd5b505afa158015614288573d6000803e3d6000fd5b505050506040513d602081101561429e57600080fd5b50511015612d585760405162461bcd60e51b815260040180806020018281038252604e815260200180615a77604e913960600191505060405180910390fd5b60006001600160a01b03831615806143745750836001600160a01b0316635dbe47e8846040518263ffffffff1660e01b815260040180826001600160a01b03166001600160a01b0316815260200191505060206040518083038186803b15801561434657600080fd5b505afa15801561435a573d6000803e3d6000fd5b505050506040513d602081101561437057600080fd5b5051155b8061438f5750670f43fc2c04ee000061438d8484612a2f565b105b1561439c57506000612017565b6000846001600160a01b031663765e0159856040518263ffffffff1660e01b815260040180826001600160a01b03166001600160a01b0316815260200191505060206040518083038186803b1580156143f457600080fd5b505afa158015614408573d6000803e3d6000fd5b505050506040513d602081101561441e57600080fd5b505190506001600160a01b03811615806121b95750670f43fc2c04ee00006144468285612a2f565b1095945050505050565b614458615916565b6001600160a01b0387166000908152600f602052604090205461449590879061449090680ad78ebc5ac620000063ffffffff612d7916565b61534b565b8082526144b690869061159790670de0b6b3a764000063ffffffff6137d616565b60208083019190915281516001600160a01b0389166000908152600f90925260408220546144e99163ffffffff612d7916565b6020808401516001600160a01b038b166000908152600f9092526040822060010154929350909161451f9163ffffffff612d7916565b9050680ad78ebc5ac62000008214156145b85761453b89614b4c565b61454689600461482d565b61455b8a8a680ad78ebc5ac620000084615471565b886001600160a01b0316600080516020615ac5833981519152600080600060036040518085815260200184815260200183815260200182600381111561459d57fe5b60ff16815260200194505050505060405180910390a26146f5565b60006145c48284614080565b905084811415806145e55750686194049f30f72000006145e3846137bb565b105b156145f957505060016040830152506146f8565b60808b01516040805163015f109360e51b81526001600160a01b038d81166004830152602482018590528a81166044830152898116606483015291519190921691632be2126091608480830192600092919082900301818387803b15801561466057600080fd5b505af1158015614674573d6000803e3d6000fd5b5050506001600160a01b038b166000908152600f60205260409020848155600101839055506146a28a612e55565b506001600160a01b038a166000818152600f602090815260409182902060020154825187815291820186905281830152600360608201529051600080516020615ac58339815191529181900360800190a2505b50505b979650505050505050565b60008061470e613871565b9050600061472684611597888863ffffffff6137d616565b9050600061474b61473e83600263ffffffff61382f16565b849063ffffffff613e0516565b905061475f81670de0b6b3a764000061534b565b90506000811161476b57fe5b600d8190556040805182815290517fc454ee9b76c52f782a256af821b857ca6e125d1e3333bcede402fec2bed9600c9181900360200190a16115a36138b5565b6000610f36612aa46113a3565b60006147d68361159786670de0b6b3a764000063ffffffff6137d616565b905081811115613494576040805162461bcd60e51b815260206004820152601d60248201527f4665652065786365656465642070726f7669646564206d6178696d756d000000604482015290519081900360640190fd5b600081600481111561483b57fe5b141580156148555750600181600481111561485257fe5b14155b61485b57fe5b60165461486781615626565b6001600160a01b0383166000908152600f60205260409020600301805483919060ff1916600183600481111561489957fe5b02179055506001600160a01b0383166000908152600f602090815260408083206001808201859055908490556015909252822082815501556148db83826149a5565b600b5460408051631484968760e11b81526001600160a01b038681166004830152915191909216916329092d0e91602480830192600092919082900301818387803b15801561492957600080fd5b505af115801561493d573d6000803e3d6000fd5b50505050505050565b600080614965670de0b6b3a7640000611597868663ffffffff6137d616565b90508281106120175760405162461bcd60e51b8152600401808060200182810382526036815260200180615b846036913960400191505060405180910390fd5b6001600160a01b0382166000908152600f602052604081206003015460ff16908160048111156149d157fe5b141580156149eb575060018160048111156149e857fe5b14155b6149f157fe5b6001600160a01b0383166000908152600f602052604081206003015461010090046001600160801b0316908390614a29826001612d79565b905080836001600160801b03161115614a3e57fe5b600060168281548110614a4d57fe5b600091825260209091200154601680546001600160a01b03909216925082916001600160801b038716908110614a7f57fe5b600091825260208083209190910180546001600160a01b0319166001600160a01b03948516179055918316808252600f83526040918290206003018054610100600160881b0319166101006001600160801b038a169081029190911790915582519182529281019290925280517f02b04ae5f7be9ca7c103293a2aa15f3c339d15d6eda53b721fef7b0e609c831a9281900390910190a16016805480614b2157fe5b600082815260209020810160001990810180546001600160a01b031916905501905550505050505050565b6001600160a01b0381166000908152600f6020526040902060020154601054614b7b908263ffffffff612d7916565b601055506001600160a01b03166000908152600f6020526040812060020155565b826001600160a01b03166338d995a8836040518263ffffffff1660e01b815260040180828152602001915050600060405180830381600087803b158015614be257600080fd5b505af1158015614bf6573d6000803e3d6000fd5b50505050836001600160a01b031663cfb9329a836040518263ffffffff1660e01b815260040180828152602001915050600060405180830381600087803b158015614c4057600080fd5b505af1158015614c54573d6000803e3d6000fd5b50505050826001600160a01b031663be41205f826040518263ffffffff1660e01b815260040180828152602001915050600060405180830381600087803b1580156136c657600080fd5b60008184841115614d2d5760405162461bcd60e51b81526004018080602001828103825283818151815260200191508051906020019080838360005b83811015614cf2578181015183820152602001614cda565b50505050905090810190601f168015614d1f5780820380516001836020036101000a031916815260200191505b509250505060405180910390fd5b505050900390565b60008060125460001415614d4a575081610f36565b600060115411614d5657fe5b612017601254611597601154866137d690919063ffffffff16565b614d79615849565b614d81615981565b601654600110614d9157506146f8565b614d9a876121eb565b60408501526020848101919091528401819052908352614db990613ff3565b60408301819052680ad78ebc5ac620000060608401526020830151614de39163ffffffff612d7916565b8152670de0b6b3a76400008611614eeb57614e08898983602001518460400151614b9c565b614e1187614b4c565b60006080830181905260a0830152815160c0830152805160e0830152614e3887600361482d565b866001600160a01b03166000805160206159a383398151915283600001518460200151600260405180848152602001838152602001826003811115614e7957fe5b60ff168152602001935050505060405180910390a2866001600160a01b0316600080516020615ac58339815191526000806000600260405180858152602001848152602001838152602001826003811115614ed057fe5b60ff16815260200194505050505060405180910390a2615098565b670de0b6b3a764000086118015614f095750670f43fc2c04ee000086105b15614f5957614f22898983602001518460400151614b9c565b614f2b87614b4c565b81518151614f3a9190876156df565b60e086015260c085015260a08401526080830152614e3887600361482d565b670f43fc2c04ee00008610158015614f7057508386105b8015614f7d575081518510155b1561508757614f96898983602001518460400151614b9c565b84614f9d57fe5b614fa687614b4c565b614fb9826000015183602001518561574b565b9150614fc687600361482d565b610100820151156150465760075461010083015160408051633f10abab60e01b81526001600160a01b038b81166004830152602482019390935290519190921691633f10abab91604480830192600092919082900301818387803b15801561502d57600080fd5b505af1158015615041573d6000803e3d6000fd5b505050505b866001600160a01b03166000805160206159a383398151915283600001518460a00151600260405180848152602001838152602001826003811115614e7957fe5b61508f615849565b91506146f89050565b50979650505050505050565b6150ac615849565b604080830151908401516150c59163ffffffff613e0516565b6040820152606080830151908401516150e39163ffffffff613e0516565b6060820152815160208401516150fe9163ffffffff613e0516565b602080830191909152820151835161511b9163ffffffff613e0516565b8152608080830151908401516151369163ffffffff613e0516565b608082015260a080830151908401516151549163ffffffff613e0516565b60a082015260c080830151908401516151729163ffffffff613e0516565b60c082015260e080830151908401516151909163ffffffff613e0516565b60e082015261010080830151908401516151af9163ffffffff613e0516565b61010082015292915050565b6000806151c9858585613f58565b6714d1120d7b1600001195945050505050565b6151e4615849565b6151ec615981565b6151f5846121eb565b6040850190815260208581019283528601929092529184529051905161521f918891889190614b9c565b61522884614b4c565b6152358260200151613ff3565b60408301819052680ad78ebc5ac620000060608401526020830151600091615263919063ffffffff612d7916565b9050615274836000015182866156df565b60e087015260c086015260a0850152608084015261529385600361482d565b846001600160a01b03166000805160206159a3833981519152846000015185602001516001604051808481526020018381526020018260038111156152d457fe5b60ff168152602001935050505060405180910390a2846001600160a01b0316600080516020615ac5833981519152600080600060016040518085815260200184815260200183815260200182600381111561532b57fe5b60ff16815260200194505050505060405180910390a25050949350505050565b600081831061535a5781612017565b5090919050565b600081836153b05760405162461bcd60e51b8152602060048201818152835160248401528351909283926044909101919085019080838360008315614cf2578181015183820152602001614cda565b5060008385816153bc57fe5b0495945050505050565b6000631f5405008211156153dc57631f54050091505b816153f05750670de0b6b3a7640000610f36565b670de0b6b3a764000083835b600181111561546757600281066154315761541782836157e5565b915061542a81600263ffffffff61382f16565b9050615462565b61543b82846157e5565b925061544782836157e5565b915061545f600261159783600163ffffffff612d7916565b90505b6153fc565b6115a382846157e5565b6040808501516006548251632770a7eb60e21b81526001600160a01b039182166004820152602481018690529251911691639dc29fac91604480830192600092919082900301818387803b1580156154c857600080fd5b505af11580156154dc573d6000803e3d6000fd5b5050505083600001516001600160a01b03166338d995a8836040518263ffffffff1660e01b815260040180828152602001915050600060405180830381600087803b15801561552a57600080fd5b505af115801561553e573d6000803e3d6000fd5b505050508360a001516001600160a01b0316633f10abab84836040518363ffffffff1660e01b815260040180836001600160a01b03166001600160a01b0316815260200182815260200192505050600060405180830381600087803b1580156155a657600080fd5b505af11580156155ba573d6000803e3d6000fd5b5050505083600001516001600160a01b03166364a197f38560a00151836040518363ffffffff1660e01b815260040180836001600160a01b03166001600160a01b0316815260200182815260200192505050600060405180830381600087803b1580156136c657600080fd5b6001811180156156a45750600b546040805163de8fa43160e01b815290516001926001600160a01b03169163de8fa431916004808301926020929190829003018186803b15801561567657600080fd5b505afa15801561568a573d6000803e3d6000fd5b505050506040513d60208110156156a057600080fd5b5051115b610ed25760405162461bcd60e51b815260040180806020018281038252602a8152602001806159ec602a913960400191505060405180910390fd5b60008080808415615735576156f4878661534b565b935061570a87611597888763ffffffff6137d616565b925061571c878563ffffffff612d7916565b915061572e868463ffffffff612d7916565b9050615742565b5060009250829150859050845b93509350935093565b615753615849565b83815260208101839052600061577b8361159787670f43fc2c04ee000063ffffffff6137d616565b905061578681613ff3565b60408301819052680ad78ebc5ac62000006060840152608083018690526157b490829063ffffffff612d7916565b60a08301526157c9848263ffffffff612d7916565b61010083015250600060c0820181905260e08201529392505050565b6000806157f8848463ffffffff6137d616565b90506140d9670de0b6b3a7640000611597836706f05b59d3b20000613e05565b6040518060a00160405280600081526020016000815260200160001515815260200160008152602001600081525090565b6040518061012001604052806000815260200160008152602001600081526020016000815260200160008152602001600081526020016000815260200160008152602001600081525090565b6040805160e081018252600080825260208201819052918101829052606081018290526080810182905260a0810182905260c081019190915290565b60405180610100016040528060008152602001600081526020016000815260200160008152602001600081526020016000815260200160008152602001600081525090565b604051806060016040528060008152602001600081526020016000151581525090565b6040518060e0016040528060008152602001600081526020016000815260200160006001600160a01b0316815260200160001515815260200160008152602001600081525090565b6040518060600160405280600081526020016000815260200160008152509056feea67486ed7ebe3eea8ab3390efd4a3c8aae48be5bea27df104a8af786c40843454726f76654d616e616765723a20556e61626c6520746f2072656465656d20616e7920616d6f756e7454726f76654d616e616765723a204f6e6c79206f6e652074726f766520696e207468652073797374656d54726f76654d616e616765723a20526564656d7074696f6e7320617265206e6f7420616c6c6f77656420647572696e6720626f6f747374726170207068617365536166654d6174683a206d756c7469706c69636174696f6e206f766572666c6f7754726f76654d616e616765723a2052657175657374656420726564656d7074696f6e20616d6f756e74206d757374206265203c3d20757365722773204c55534420746f6b656e2062616c616e6365c3770d654ed33aeea6bf11ac8ef05d02a6a04ed4686dd2f624d853bbec43cc8b54726f76654d616e616765723a2043616c6c6572206973206e6f742074686520426f72726f7765724f7065726174696f6e7320636f6e747261637454726f76654d616e616765723a2043616c6c646174612061646472657373206172726179206d757374206e6f7420626520656d70747954726f76654d616e616765723a20416d6f756e74206d7573742062652067726561746572207468616e207a65726f54726f76654d616e616765723a2046656520776f756c642065617420757020616c6c2072657475726e656420636f6c6c61746572616c4d6178206665652070657263656e74616765206d757374206265206265747765656e20302e352520616e64203130302554726f76654d616e616765723a2043616e6e6f742072656465656d207768656e20544352203c204d435254726f76654d616e616765723a206e6f7468696e6720746f206c697175696461746554726f76654d616e616765723a2054726f766520646f6573206e6f74206578697374206f7220697320636c6f736564a26469706673582212203f7c116eff8ef98ff0786eb5c87101130d55ad13e28a263753a1b54ed2d16e4364736f6c634300060b0033",
  "linkReferences": {},
  "deployedLinkReferences": {}
}