{
  "_format": "hh-sol-artifact-1",
  "contractName": "TroveManager",
  "sourceName": "contracts/TroveManager.sol",
  "abi": [
    {
      "anonymous": false,
      "inputs": [
        {
          "indexed": false,
          "internalType": "address",
          "name": "_activePoolAddress",
          "type": "address"
        }
      ],
      "name": "ActivePoolAddressChanged",
      "type": "event"
    },
    {
      "anonymous": false,
      "inputs": [
        {
          "indexed": false,
          "internalType": "uint256",
          "name": "_baseRate",
          "type": "uint256"
        }
      ],
      "name": "BaseRateUpdated",
      "type": "event"
    },
    {
      "anonymous": false,
      "inputs": [
        {
          "indexed": false,
          "internalType": "address",
          "name": "_newBorrowerOperationsAddress",
          "type": "address"
        }
      ],
      "name": "BorrowerOperationsAddressChanged",
      "type": "event"
    },
    {
      "anonymous": false,
      "inputs": [
        {
          "indexed": false,
          "internalType": "address",
          "name": "_collSurplusPoolAddress",
          "type": "address"
        }
      ],
      "name": "CollSurplusPoolAddressChanged",
      "type": "event"
    },
    {
      "anonymous": false,
      "inputs": [
        {
          "indexed": false,
          "internalType": "address",
          "name": "_defaultPoolAddress",
          "type": "address"
        }
      ],
      "name": "DefaultPoolAddressChanged",
      "type": "event"
    },
    {
      "anonymous": false,
      "inputs": [
        {
          "indexed": false,
          "internalType": "address",
          "name": "_gasPoolAddress",
          "type": "address"
        }
      ],
      "name": "GasPoolAddressChanged",
      "type": "event"
    },
    {
      "anonymous": false,
      "inputs": [
        {
          "indexed": false,
          "internalType": "address",
          "name": "_lqtyStakingAddress",
          "type": "address"
        }
      ],
      "name": "LQTYStakingAddressChanged",
      "type": "event"
    },
    {
      "anonymous": false,
      "inputs": [
        {
          "indexed": false,
          "internalType": "address",
          "name": "_lqtyTokenAddress",
          "type": "address"
        }
      ],
      "name": "LQTYTokenAddressChanged",
      "type": "event"
    },
    {
      "anonymous": false,
      "inputs": [
        {
          "indexed": false,
          "internalType": "uint256",
          "name": "_L_ETH",
          "type": "uint256"
        },
        {
          "indexed": false,
          "internalType": "uint256",
          "name": "_L_LUSDDebt",
          "type": "uint256"
        }
      ],
      "name": "LTermsUpdated",
      "type": "event"
    },
    {
      "anonymous": false,
      "inputs": [
        {
          "indexed": false,
          "internalType": "address",
          "name": "_newLUSDTokenAddress",
          "type": "address"
        }
      ],
      "name": "LUSDTokenAddressChanged",
      "type": "event"
    },
    {
      "anonymous": false,
      "inputs": [
        {
          "indexed": false,
          "internalType": "uint256",
          "name": "_lastFeeOpTime",
          "type": "uint256"
        }
      ],
      "name": "LastFeeOpTimeUpdated",
      "type": "event"
    },
    {
      "anonymous": false,
      "inputs": [
        {
          "indexed": false,
          "internalType": "uint256",
          "name": "_liquidatedDebt",
          "type": "uint256"
        },
        {
          "indexed": false,
          "internalType": "uint256",
          "name": "_liquidatedColl",
          "type": "uint256"
        },
        {
          "indexed": false,
          "internalType": "uint256",
          "name": "_collGasCompensation",
          "type": "uint256"
        },
        {
          "indexed": false,
          "internalType": "uint256",
          "name": "_LUSDGasCompensation",
          "type": "uint256"
        }
      ],
      "name": "Liquidation",
      "type": "event"
    },
    {
      "anonymous": false,
      "inputs": [
        {
          "indexed": true,
          "internalType": "address",
          "name": "previousOwner",
          "type": "address"
        },
        {
          "indexed": true,
          "internalType": "address",
          "name": "newOwner",
          "type": "address"
        }
      ],
      "name": "OwnershipTransferred",
      "type": "event"
    },
    {
      "anonymous": false,
      "inputs": [
        {
          "indexed": false,
          "internalType": "address",
          "name": "_newPriceFeedAddress",
          "type": "address"
        }
      ],
      "name": "PriceFeedAddressChanged",
      "type": "event"
    },
    {
      "anonymous": false,
      "inputs": [
        {
          "indexed": false,
          "internalType": "uint256",
          "name": "_attemptedLUSDAmount",
          "type": "uint256"
        },
        {
          "indexed": false,
          "internalType": "uint256",
          "name": "_actualLUSDAmount",
          "type": "uint256"
        },
        {
          "indexed": false,
          "internalType": "uint256",
          "name": "_ETHSent",
          "type": "uint256"
        },
        {
          "indexed": false,
          "internalType": "uint256",
          "name": "_ETHFee",
          "type": "uint256"
        }
      ],
      "name": "Redemption",
      "type": "event"
    },
    {
      "anonymous": false,
      "inputs": [
        {
          "indexed": false,
          "internalType": "address",
          "name": "_sortedTrovesAddress",
          "type": "address"
        }
      ],
      "name": "SortedTrovesAddressChanged",
      "type": "event"
    },
    {
      "anonymous": false,
      "inputs": [
        {
          "indexed": false,
          "internalType": "address",
          "name": "_stabilityPoolAddress",
          "type": "address"
        }
      ],
      "name": "StabilityPoolAddressChanged",
      "type": "event"
    },
    {
      "anonymous": false,
      "inputs": [
        {
          "indexed": false,
          "internalType": "uint256",
          "name": "_totalStakesSnapshot",
          "type": "uint256"
        },
        {
          "indexed": false,
          "internalType": "uint256",
          "name": "_totalCollateralSnapshot",
          "type": "uint256"
        }
      ],
      "name": "SystemSnapshotsUpdated",
      "type": "event"
    },
    {
      "anonymous": false,
      "inputs": [
        {
          "indexed": false,
          "internalType": "uint256",
          "name": "_newTotalStakes",
          "type": "uint256"
        }
      ],
      "name": "TotalStakesUpdated",
      "type": "event"
    },
    {
      "anonymous": false,
      "inputs": [
        {
          "indexed": false,
          "internalType": "address",
          "name": "_borrower",
          "type": "address"
        },
        {
          "indexed": false,
          "internalType": "uint256",
          "name": "_newIndex",
          "type": "uint256"
        }
      ],
      "name": "TroveIndexUpdated",
      "type": "event"
    },
    {
      "anonymous": false,
      "inputs": [
        {
          "indexed": true,
          "internalType": "address",
          "name": "_borrower",
          "type": "address"
        },
        {
          "indexed": false,
          "internalType": "uint256",
          "name": "_debt",
          "type": "uint256"
        },
        {
          "indexed": false,
          "internalType": "uint256",
          "name": "_coll",
          "type": "uint256"
        },
        {
          "indexed": false,
          "internalType": "enum TroveManager.TroveManagerOperation",
          "name": "_operation",
          "type": "uint8"
        }
      ],
      "name": "TroveLiquidated",
      "type": "event"
    },
    {
      "anonymous": false,
      "inputs": [
        {
          "indexed": false,
          "internalType": "uint256",
          "name": "_L_ETH",
          "type": "uint256"
        },
        {
          "indexed": false,
          "internalType": "uint256",
          "name": "_L_LUSDDebt",
          "type": "uint256"
        }
      ],
      "name": "TroveSnapshotsUpdated",
      "type": "event"
    },
    {
      "anonymous": false,
      "inputs": [
        {
          "indexed": true,
          "internalType": "address",
          "name": "_borrower",
          "type": "address"
        },
        {
          "indexed": false,
          "internalType": "uint256",
          "name": "_debt",
          "type": "uint256"
        },
        {
          "indexed": false,
          "internalType": "uint256",
          "name": "_coll",
          "type": "uint256"
        },
        {
          "indexed": false,
          "internalType": "uint256",
          "name": "_stake",
          "type": "uint256"
        },
        {
          "indexed": false,
          "internalType": "enum TroveManager.TroveManagerOperation",
          "name": "_operation",
          "type": "uint8"
        }
      ],
      "name": "TroveUpdated",
      "type": "event"
    },
    {
      "inputs": [],
      "name": "BETA",
      "outputs": [
        {
          "internalType": "uint256",
          "name": "",
          "type": "uint256"
        }
      ],
      "stateMutability": "view",
      "type": "function"
    },
    {
      "inputs": [],
      "name": "BOOTSTRAP_PERIOD",
      "outputs": [
        {
          "internalType": "uint256",
          "name": "",
          "type": "uint256"
        }
      ],
      "stateMutability": "view",
      "type": "function"
    },
    {
      "inputs": [],
      "name": "BORROWING_FEE_FLOOR",
      "outputs": [
        {
          "internalType": "uint256",
          "name": "",
          "type": "uint256"
        }
      ],
      "stateMutability": "view",
      "type": "function"
    },
    {
      "inputs": [],
      "name": "CCR",
      "outputs": [
        {
          "internalType": "uint256",
          "name": "",
          "type": "uint256"
        }
      ],
      "stateMutability": "view",
      "type": "function"
    },
    {
      "inputs": [],
      "name": "DECIMAL_PRECISION",
      "outputs": [
        {
          "internalType": "uint256",
          "name": "",
          "type": "uint256"
        }
      ],
      "stateMutability": "view",
      "type": "function"
    },
    {
      "inputs": [],
      "name": "LUSD_GAS_COMPENSATION",
      "outputs": [
        {
          "internalType": "uint256",
          "name": "",
          "type": "uint256"
        }
      ],
      "stateMutability": "view",
      "type": "function"
    },
    {
      "inputs": [],
      "name": "L_ETH",
      "outputs": [
        {
          "internalType": "uint256",
          "name": "",
          "type": "uint256"
        }
      ],
      "stateMutability": "view",
      "type": "function"
    },
    {
      "inputs": [],
      "name": "L_LUSDDebt",
      "outputs": [
        {
          "internalType": "uint256",
          "name": "",
          "type": "uint256"
        }
      ],
      "stateMutability": "view",
      "type": "function"
    },
    {
      "inputs": [],
      "name": "MAX_BORROWING_FEE",
      "outputs": [
        {
          "internalType": "uint256",
          "name": "",
          "type": "uint256"
        }
      ],
      "stateMutability": "view",
      "type": "function"
    },
    {
      "inputs": [],
      "name": "MCR",
      "outputs": [
        {
          "internalType": "uint256",
          "name": "",
          "type": "uint256"
        }
      ],
      "stateMutability": "view",
      "type": "function"
    },
    {
      "inputs": [],
      "name": "MINUTE_DECAY_FACTOR",
      "outputs": [
        {
          "internalType": "uint256",
          "name": "",
          "type": "uint256"
        }
      ],
      "stateMutability": "view",
      "type": "function"
    },
    {
      "inputs": [],
      "name": "MIN_NET_DEBT",
      "outputs": [
        {
          "internalType": "uint256",
          "name": "",
          "type": "uint256"
        }
      ],
      "stateMutability": "view",
      "type": "function"
    },
    {
      "inputs": [],
      "name": "NAME",
      "outputs": [
        {
          "internalType": "string",
          "name": "",
          "type": "string"
        }
      ],
      "stateMutability": "view",
      "type": "function"
    },
    {
      "inputs": [],
      "name": "PERCENT_DIVISOR",
      "outputs": [
        {
          "internalType": "uint256",
          "name": "",
          "type": "uint256"
        }
      ],
      "stateMutability": "view",
      "type": "function"
    },
    {
      "inputs": [],
      "name": "REDEMPTION_FEE_FLOOR",
      "outputs": [
        {
          "internalType": "uint256",
          "name": "",
          "type": "uint256"
        }
      ],
      "stateMutability": "view",
      "type": "function"
    },
    {
      "inputs": [],
      "name": "SECONDS_IN_ONE_MINUTE",
      "outputs": [
        {
          "internalType": "uint256",
          "name": "",
          "type": "uint256"
        }
      ],
      "stateMutability": "view",
      "type": "function"
    },
    {
      "inputs": [
        {
          "internalType": "uint256",
          "name": "",
          "type": "uint256"
        }
      ],
      "name": "TroveOwners",
      "outputs": [
        {
          "internalType": "address",
          "name": "",
          "type": "address"
        }
      ],
      "stateMutability": "view",
      "type": "function"
    },
    {
      "inputs": [
        {
          "internalType": "address",
          "name": "",
          "type": "address"
        }
      ],
      "name": "Troves",
      "outputs": [
        {
          "internalType": "uint256",
          "name": "debt",
          "type": "uint256"
        },
        {
          "internalType": "uint256",
          "name": "coll",
          "type": "uint256"
        },
        {
          "internalType": "uint256",
          "name": "stake",
          "type": "uint256"
        },
        {
          "internalType": "enum TroveManager.Status",
          "name": "status",
          "type": "uint8"
        },
        {
          "internalType": "uint128",
          "name": "arrayIndex",
          "type": "uint128"
        }
      ],
      "stateMutability": "view",
      "type": "function"
    },
    {
      "inputs": [],
      "name": "_100pct",
      "outputs": [
        {
          "internalType": "uint256",
          "name": "",
          "type": "uint256"
        }
      ],
      "stateMutability": "view",
      "type": "function"
    },
    {
      "inputs": [],
      "name": "activePool",
      "outputs": [
        {
          "internalType": "contract IActivePool",
          "name": "",
          "type": "address"
        }
      ],
      "stateMutability": "view",
      "type": "function"
    },
    {
      "inputs": [
        {
          "internalType": "address",
          "name": "_borrower",
          "type": "address"
        }
      ],
      "name": "addTroveOwnerToArray",
      "outputs": [
        {
          "internalType": "uint256",
          "name": "index",
          "type": "uint256"
        }
      ],
      "stateMutability": "nonpayable",
      "type": "function"
    },
    {
      "inputs": [
        {
          "internalType": "address",
          "name": "_borrower",
          "type": "address"
        }
      ],
      "name": "applyPendingRewards",
      "outputs": [],
      "stateMutability": "nonpayable",
      "type": "function"
    },
    {
      "inputs": [],
      "name": "baseRate",
      "outputs": [
        {
          "internalType": "uint256",
          "name": "",
          "type": "uint256"
        }
      ],
      "stateMutability": "view",
      "type": "function"
    },
    {
      "inputs": [
        {
          "internalType": "address[]",
          "name": "_troveArray",
          "type": "address[]"
        }
      ],
      "name": "batchLiquidateTroves",
      "outputs": [],
      "stateMutability": "nonpayable",
      "type": "function"
    },
    {
      "inputs": [],
      "name": "borrowerOperationsAddress",
      "outputs": [
        {
          "internalType": "address",
          "name": "",
          "type": "address"
        }
      ],
      "stateMutability": "view",
      "type": "function"
    },
    {
      "inputs": [
        {
          "internalType": "uint256",
          "name": "_price",
          "type": "uint256"
        }
      ],
      "name": "checkRecoveryMode",
      "outputs": [
        {
          "internalType": "bool",
          "name": "",
          "type": "bool"
        }
      ],
      "stateMutability": "view",
      "type": "function"
    },
    {
      "inputs": [
        {
          "internalType": "address",
          "name": "_borrower",
          "type": "address"
        }
      ],
      "name": "closeTrove",
      "outputs": [],
      "stateMutability": "nonpayable",
      "type": "function"
    },
    {
      "inputs": [],
      "name": "decayBaseRateFromBorrowing",
      "outputs": [],
      "stateMutability": "nonpayable",
      "type": "function"
    },
    {
      "inputs": [
        {
          "internalType": "address",
          "name": "_borrower",
          "type": "address"
        },
        {
          "internalType": "uint256",
          "name": "_collDecrease",
          "type": "uint256"
        }
      ],
      "name": "decreaseTroveColl",
      "outputs": [
        {
          "internalType": "uint256",
          "name": "",
          "type": "uint256"
        }
      ],
      "stateMutability": "nonpayable",
      "type": "function"
    },
    {
      "inputs": [
        {
          "internalType": "address",
          "name": "_borrower",
          "type": "address"
        },
        {
          "internalType": "uint256",
          "name": "_debtDecrease",
          "type": "uint256"
        }
      ],
      "name": "decreaseTroveDebt",
      "outputs": [
        {
          "internalType": "uint256",
          "name": "",
          "type": "uint256"
        }
      ],
      "stateMutability": "nonpayable",
      "type": "function"
    },
    {
      "inputs": [],
      "name": "defaultPool",
      "outputs": [
        {
          "internalType": "contract IDefaultPool",
          "name": "",
          "type": "address"
        }
      ],
      "stateMutability": "view",
      "type": "function"
    },
    {
      "inputs": [
        {
          "internalType": "uint256",
          "name": "_LUSDDebt",
          "type": "uint256"
        }
      ],
      "name": "getBorrowingFee",
      "outputs": [
        {
          "internalType": "uint256",
          "name": "",
          "type": "uint256"
        }
      ],
      "stateMutability": "view",
      "type": "function"
    },
    {
      "inputs": [
        {
          "internalType": "uint256",
          "name": "_LUSDDebt",
          "type": "uint256"
        }
      ],
      "name": "getBorrowingFeeWithDecay",
      "outputs": [
        {
          "internalType": "uint256",
          "name": "",
          "type": "uint256"
        }
      ],
      "stateMutability": "view",
      "type": "function"
    },
    {
      "inputs": [],
      "name": "getBorrowingRate",
      "outputs": [
        {
          "internalType": "uint256",
          "name": "",
          "type": "uint256"
        }
      ],
      "stateMutability": "view",
      "type": "function"
    },
    {
      "inputs": [],
      "name": "getBorrowingRateWithDecay",
      "outputs": [
        {
          "internalType": "uint256",
          "name": "",
          "type": "uint256"
        }
      ],
      "stateMutability": "view",
      "type": "function"
    },
    {
      "inputs": [
        {
          "internalType": "address",
          "name": "_borrower",
          "type": "address"
        },
        {
          "internalType": "uint256",
          "name": "_price",
          "type": "uint256"
        }
      ],
      "name": "getCurrentICR",
      "outputs": [
        {
          "internalType": "uint256",
          "name": "",
          "type": "uint256"
        }
      ],
      "stateMutability": "view",
      "type": "function"
    },
    {
      "inputs": [
        {
          "internalType": "address",
          "name": "_borrower",
          "type": "address"
        }
      ],
      "name": "getEntireDebtAndColl",
      "outputs": [
        {
          "internalType": "uint256",
          "name": "debt",
          "type": "uint256"
        },
        {
          "internalType": "uint256",
          "name": "coll",
          "type": "uint256"
        },
        {
          "internalType": "uint256",
          "name": "pendingLUSDDebtReward",
          "type": "uint256"
        },
        {
          "internalType": "uint256",
          "name": "pendingETHReward",
          "type": "uint256"
        }
      ],
      "stateMutability": "view",
      "type": "function"
    },
    {
      "inputs": [],
      "name": "getEntireSystemColl",
      "outputs": [
        {
          "internalType": "uint256",
          "name": "entireSystemColl",
          "type": "uint256"
        }
      ],
      "stateMutability": "view",
      "type": "function"
    },
    {
      "inputs": [],
      "name": "getEntireSystemDebt",
      "outputs": [
        {
          "internalType": "uint256",
          "name": "entireSystemDebt",
          "type": "uint256"
        }
      ],
      "stateMutability": "view",
      "type": "function"
    },
    {
      "inputs": [
        {
          "internalType": "address",
          "name": "_borrower",
          "type": "address"
        }
      ],
      "name": "getNominalICR",
      "outputs": [
        {
          "internalType": "uint256",
          "name": "",
          "type": "uint256"
        }
      ],
      "stateMutability": "view",
      "type": "function"
    },
    {
      "inputs": [
        {
          "internalType": "address",
          "name": "_borrower",
          "type": "address"
        }
      ],
      "name": "getPendingETHReward",
      "outputs": [
        {
          "internalType": "uint256",
          "name": "",
          "type": "uint256"
        }
      ],
      "stateMutability": "view",
      "type": "function"
    },
    {
      "inputs": [
        {
          "internalType": "address",
          "name": "_borrower",
          "type": "address"
        }
      ],
      "name": "getPendingLUSDDebtReward",
      "outputs": [
        {
          "internalType": "uint256",
          "name": "",
          "type": "uint256"
        }
      ],
      "stateMutability": "view",
      "type": "function"
    },
    {
      "inputs": [
        {
          "internalType": "uint256",
          "name": "_ETHDrawn",
          "type": "uint256"
        }
      ],
      "name": "getRedemptionFeeWithDecay",
      "outputs": [
        {
          "internalType": "uint256",
          "name": "",
          "type": "uint256"
        }
      ],
      "stateMutability": "view",
      "type": "function"
    },
    {
      "inputs": [],
      "name": "getRedemptionRate",
      "outputs": [
        {
          "internalType": "uint256",
          "name": "",
          "type": "uint256"
        }
      ],
      "stateMutability": "view",
      "type": "function"
    },
    {
      "inputs": [],
      "name": "getRedemptionRateWithDecay",
      "outputs": [
        {
          "internalType": "uint256",
          "name": "",
          "type": "uint256"
        }
      ],
      "stateMutability": "view",
      "type": "function"
    },
    {
      "inputs": [
        {
          "internalType": "uint256",
          "name": "_price",
          "type": "uint256"
        }
      ],
      "name": "getTCR",
      "outputs": [
        {
          "internalType": "uint256",
          "name": "",
          "type": "uint256"
        }
      ],
      "stateMutability": "view",
      "type": "function"
    },
    {
      "inputs": [
        {
          "internalType": "address",
          "name": "_borrower",
          "type": "address"
        }
      ],
      "name": "getTroveColl",
      "outputs": [
        {
          "internalType": "uint256",
          "name": "",
          "type": "uint256"
        }
      ],
      "stateMutability": "view",
      "type": "function"
    },
    {
      "inputs": [
        {
          "internalType": "address",
          "name": "_borrower",
          "type": "address"
        }
      ],
      "name": "getTroveDebt",
      "outputs": [
        {
          "internalType": "uint256",
          "name": "",
          "type": "uint256"
        }
      ],
      "stateMutability": "view",
      "type": "function"
    },
    {
      "inputs": [
        {
          "internalType": "uint256",
          "name": "_index",
          "type": "uint256"
        }
      ],
      "name": "getTroveFromTroveOwnersArray",
      "outputs": [
        {
          "internalType": "address",
          "name": "",
          "type": "address"
        }
      ],
      "stateMutability": "view",
      "type": "function"
    },
    {
      "inputs": [],
      "name": "getTroveOwnersCount",
      "outputs": [
        {
          "internalType": "uint256",
          "name": "",
          "type": "uint256"
        }
      ],
      "stateMutability": "view",
      "type": "function"
    },
    {
      "inputs": [
        {
          "internalType": "address",
          "name": "_borrower",
          "type": "address"
        }
      ],
      "name": "getTroveStake",
      "outputs": [
        {
          "internalType": "uint256",
          "name": "",
          "type": "uint256"
        }
      ],
      "stateMutability": "view",
      "type": "function"
    },
    {
      "inputs": [
        {
          "internalType": "address",
          "name": "_borrower",
          "type": "address"
        }
      ],
      "name": "getTroveStatus",
      "outputs": [
        {
          "internalType": "uint256",
          "name": "",
          "type": "uint256"
        }
      ],
      "stateMutability": "view",
      "type": "function"
    },
    {
      "inputs": [
        {
          "internalType": "address",
          "name": "_borrower",
          "type": "address"
        }
      ],
      "name": "hasPendingRewards",
      "outputs": [
        {
          "internalType": "bool",
          "name": "",
          "type": "bool"
        }
      ],
      "stateMutability": "view",
      "type": "function"
    },
    {
      "inputs": [
        {
          "internalType": "address",
          "name": "_borrower",
          "type": "address"
        },
        {
          "internalType": "uint256",
          "name": "_collIncrease",
          "type": "uint256"
        }
      ],
      "name": "increaseTroveColl",
      "outputs": [
        {
          "internalType": "uint256",
          "name": "",
          "type": "uint256"
        }
      ],
      "stateMutability": "nonpayable",
      "type": "function"
    },
    {
      "inputs": [
        {
          "internalType": "address",
          "name": "_borrower",
          "type": "address"
        },
        {
          "internalType": "uint256",
          "name": "_debtIncrease",
          "type": "uint256"
        }
      ],
      "name": "increaseTroveDebt",
      "outputs": [
        {
          "internalType": "uint256",
          "name": "",
          "type": "uint256"
        }
      ],
      "stateMutability": "nonpayable",
      "type": "function"
    },
    {
      "inputs": [],
      "name": "isOwner",
      "outputs": [
        {
          "internalType": "bool",
          "name": "",
          "type": "bool"
        }
      ],
      "stateMutability": "view",
      "type": "function"
    },
    {
      "inputs": [],
      "name": "lastETHError_Redistribution",
      "outputs": [
        {
          "internalType": "uint256",
          "name": "",
          "type": "uint256"
        }
      ],
      "stateMutability": "view",
      "type": "function"
    },
    {
      "inputs": [],
      "name": "lastFeeOperationTime",
      "outputs": [
        {
          "internalType": "uint256",
          "name": "",
          "type": "uint256"
        }
      ],
      "stateMutability": "view",
      "type": "function"
    },
    {
      "inputs": [],
      "name": "lastLUSDDebtError_Redistribution",
      "outputs": [
        {
          "internalType": "uint256",
          "name": "",
          "type": "uint256"
        }
      ],
      "stateMutability": "view",
      "type": "function"
    },
    {
      "inputs": [
        {
          "internalType": "address",
          "name": "_borrower",
          "type": "address"
        }
      ],
      "name": "liquidate",
      "outputs": [],
      "stateMutability": "nonpayable",
      "type": "function"
    },
    {
      "inputs": [
        {
          "internalType": "uint256",
          "name": "_n",
          "type": "uint256"
        }
      ],
      "name": "liquidateTroves",
      "outputs": [],
      "stateMutability": "nonpayable",
      "type": "function"
    },
    {
      "inputs": [],
      "name": "lqtyStaking",
      "outputs": [
        {
          "internalType": "contract ILQTYStaking",
          "name": "",
          "type": "address"
        }
      ],
      "stateMutability": "view",
      "type": "function"
    },
    {
      "inputs": [],
      "name": "lqtyToken",
      "outputs": [
        {
          "internalType": "contract ILQTYToken",
          "name": "",
          "type": "address"
        }
      ],
      "stateMutability": "view",
      "type": "function"
    },
    {
      "inputs": [],
      "name": "lusdToken",
      "outputs": [
        {
          "internalType": "contract ILUSDToken",
          "name": "",
          "type": "address"
        }
      ],
      "stateMutability": "view",
      "type": "function"
    },
    {
      "inputs": [],
      "name": "owner",
      "outputs": [
        {
          "internalType": "address",
          "name": "",
          "type": "address"
        }
      ],
      "stateMutability": "view",
      "type": "function"
    },
    {
      "inputs": [],
      "name": "priceFeed",
      "outputs": [
        {
          "internalType": "contract IPriceFeed",
          "name": "",
          "type": "address"
        }
      ],
      "stateMutability": "view",
      "type": "function"
    },
    {
      "inputs": [
        {
          "internalType": "uint256",
          "name": "_LUSDamount",
          "type": "uint256"
        },
        {
          "internalType": "address",
          "name": "_firstRedemptionHint",
          "type": "address"
        },
        {
          "internalType": "address",
          "name": "_upperPartialRedemptionHint",
          "type": "address"
        },
        {
          "internalType": "address",
          "name": "_lowerPartialRedemptionHint",
          "type": "address"
        },
        {
          "internalType": "uint256",
          "name": "_partialRedemptionHintNICR",
          "type": "uint256"
        },
        {
          "internalType": "uint256",
          "name": "_maxIterations",
          "type": "uint256"
        },
        {
          "internalType": "uint256",
          "name": "_maxFeePercentage",
          "type": "uint256"
        }
      ],
      "name": "redeemCollateral",
      "outputs": [],
      "stateMutability": "nonpayable",
      "type": "function"
    },
    {
      "inputs": [
        {
          "internalType": "address",
          "name": "_borrower",
          "type": "address"
        }
      ],
      "name": "removeStake",
      "outputs": [],
      "stateMutability": "nonpayable",
      "type": "function"
    },
    {
      "inputs": [
        {
          "internalType": "address",
          "name": "",
          "type": "address"
        }
      ],
      "name": "rewardSnapshots",
      "outputs": [
        {
          "internalType": "uint256",
          "name": "ETH",
          "type": "uint256"
        },
        {
          "internalType": "uint256",
          "name": "LUSDDebt",
          "type": "uint256"
        }
      ],
      "stateMutability": "view",
      "type": "function"
    },
    {
      "inputs": [
        {
          "internalType": "address",
          "name": "_borrowerOperationsAddress",
          "type": "address"
        },
        {
          "internalType": "address",
          "name": "_activePoolAddress",
          "type": "address"
        },
        {
          "internalType": "address",
          "name": "_defaultPoolAddress",
          "type": "address"
        },
        {
          "internalType": "address",
          "name": "_stabilityPoolAddress",
          "type": "address"
        },
        {
          "internalType": "address",
          "name": "_gasPoolAddress",
          "type": "address"
        },
        {
          "internalType": "address",
          "name": "_collSurplusPoolAddress",
          "type": "address"
        },
        {
          "internalType": "address",
          "name": "_priceFeedAddress",
          "type": "address"
        },
        {
          "internalType": "address",
          "name": "_lusdTokenAddress",
          "type": "address"
        },
        {
          "internalType": "address",
          "name": "_sortedTrovesAddress",
          "type": "address"
        },
        {
          "internalType": "address",
          "name": "_lqtyTokenAddress",
          "type": "address"
        },
        {
          "internalType": "address",
          "name": "_lqtyStakingAddress",
          "type": "address"
        }
      ],
      "name": "setAddresses",
      "outputs": [],
      "stateMutability": "nonpayable",
      "type": "function"
    },
    {
      "inputs": [
        {
          "internalType": "address",
          "name": "_borrower",
          "type": "address"
        },
        {
          "internalType": "uint256",
          "name": "_num",
          "type": "uint256"
        }
      ],
      "name": "setTroveStatus",
      "outputs": [],
      "stateMutability": "nonpayable",
      "type": "function"
    },
    {
      "inputs": [],
      "name": "sortedTroves",
      "outputs": [
        {
          "internalType": "contract ISortedTroves",
          "name": "",
          "type": "address"
        }
      ],
      "stateMutability": "view",
      "type": "function"
    },
    {
      "inputs": [],
      "name": "stabilityPool",
      "outputs": [
        {
          "internalType": "contract IStabilityPool",
          "name": "",
          "type": "address"
        }
      ],
      "stateMutability": "view",
      "type": "function"
    },
    {
      "inputs": [],
      "name": "systemDeploymentTime",
      "outputs": [
        {
          "internalType": "uint256",
          "name": "",
          "type": "uint256"
        }
      ],
      "stateMutability": "view",
      "type": "function"
    },
    {
      "inputs": [],
      "name": "totalCollateralSnapshot",
      "outputs": [
        {
          "internalType": "uint256",
          "name": "",
          "type": "uint256"
        }
      ],
      "stateMutability": "view",
      "type": "function"
    },
    {
      "inputs": [],
      "name": "totalStakes",
      "outputs": [
        {
          "internalType": "uint256",
          "name": "",
          "type": "uint256"
        }
      ],
      "stateMutability": "view",
      "type": "function"
    },
    {
      "inputs": [],
      "name": "totalStakesSnapshot",
      "outputs": [
        {
          "internalType": "uint256",
          "name": "",
          "type": "uint256"
        }
      ],
      "stateMutability": "view",
      "type": "function"
    },
    {
      "inputs": [
        {
          "internalType": "address",
          "name": "_borrower",
          "type": "address"
        }
      ],
      "name": "updateStakeAndTotalStakes",
      "outputs": [
        {
          "internalType": "uint256",
          "name": "",
          "type": "uint256"
        }
      ],
      "stateMutability": "nonpayable",
      "type": "function"
    },
    {
      "inputs": [
        {
          "internalType": "address",
          "name": "_borrower",
          "type": "address"
        }
      ],
      "name": "updateTroveRewardSnapshots",
      "outputs": [],
      "stateMutability": "nonpayable",
      "type": "function"
    }
  ],
  "bytecode": "0x608060405234801561001057600080fd5b50600380546001600160a01b031916339081179091556040516000907f8be0079c531659141344cd1fd0a4f28419497f9722a3daafe3b4186f6b6457e0908290a3615a5580620000616000396000f3fe608060405234801561001057600080fd5b50600436106104655760003560e01c8063794e572411610257578063b83f91a211610146578063d3d6f843116100c3578063e2ac77b011610087578063e2ac77b014610c8a578063f34862de14610cb0578063f36b242514610cd6578063f92d343314610678578063fe2ba84814610cde57610465565b8063d3d6f84314610bf6578063d5b3563514610c22578063d66a255314610c3f578063d9a7244414610c65578063dba1c5f214610c8257610465565b8063c52861f21161010a578063c52861f214610b8c578063c7b5548114610b94578063cbd138ae14610b9c578063d293c71014610bc2578063d380a37c14610bee57610465565b8063b83f91a214610ada578063b91af97c14610ae2578063bcd3752614610b2e578063bf9befb114610b7c578063c35bc55014610b8457610465565b806396d711ff116101d4578063a3f4df7e11610198578063a3f4df7e14610a0a578063ae91875414610a87578063b0d8e18114610a8f578063b7f8cf9b14610ab5578063b82f263d14610abd57610465565b806396d711ff146109c65780639976cf45146109ce5780639dd233d2146109fa578063a20baee6146108b7578063a3a6401714610a0257610465565b8063807d138d1161021b578063807d138d1461098057806382fe3eb914610988578063887105d3146109ae5780638da5cb5b146109b65780638f32d59b146109be57610465565b8063794e5724146108e4578063795d26c3146108ec578063797250e3146108f45780637985c5e4146108fc5780637f7dde4a1461097857610465565b8063477d66cf11610373578063631203b0116102f0578063720fbe2c116102b4578063720fbe2c1461088357806372423c171461088b57806372fe25aa146108b7578063741bef1a146108bf578063756b253e146108c757610465565b8063631203b0146107ac57806364cee260146107c9578063653d46e7146107ef57806366ca4a211461080c5780636ef643381461081457610465565b80635733d58f116103375780635733d58f146107425780635d6b480f1461074a5780635d8c9609146107765780635dba4c4a1461079c57806361ec893d146107a457610465565b8063477d66cf146106be578063480cd578146106db5780634870dd9a1461070157806349eefeee146107095780634e443d9e1461071157610465565b80631e8b1c2b1161040157806328d28b5b116103c557806328d28b5b146106785780632b11551a146106805780632e86bbd8146106885780632f865568146106905780633cc74225146106b657610465565b80631e8b1c2b146105975780631f68f20a1461063a5780631f7af3c31461064257806321e378011461064a578063240926691461067057610465565b8063048c661d1461046a578063060d49a31461048e578063071a7541146104a85780630b076557146104b057806312610e92146104d857806315d549f1146105045780631673c79a1461052a57806318f2817a146105695780631bf435551461058f575b600080fd5b610472610d04565b604080516001600160a01b039092168252519081900360200190f35b610496610d13565b60408051918252519081900360200190f35b610496610d19565b6104d6600480360360208110156104c657600080fd5b50356001600160a01b0316610d1e565b005b610496600480360360408110156104ee57600080fd5b506001600160a01b038135169060200135610d46565b6104966004803603602081101561051a57600080fd5b50356001600160a01b0316610d9e565b6105506004803603602081101561054057600080fd5b50356001600160a01b0316610dc2565b6040805192835260208301919091528051918290030190f35b6104966004803603602081101561057f57600080fd5b50356001600160a01b0316610ddb565b610496610dee565b6104d6600480360360208110156105ad57600080fd5b8101906020810181356401000000008111156105c857600080fd5b8201836020820111156105da57600080fd5b803590602001918460208302840111640100000000831117156105fc57600080fd5b919080806020026020016040519081016040528093929190818152602001838360200280828437600092019190915250929550610dfb945050505050565b61049661119d565b6104726111a3565b6104966004803603602081101561066057600080fd5b50356001600160a01b03166111b2565b6104966111dc565b6104966111ef565b610496611200565b610496611212565b6104d6600480360360208110156106a657600080fd5b50356001600160a01b031661121f565b610472611285565b610496600480360360208110156106d457600080fd5b5035611294565b610496600480360360208110156106f157600080fd5b50356001600160a01b03166112a7565b6104966112c5565b6104966112ca565b61072e6004803603602081101561072757600080fd5b50356112d0565b604080519115158252519081900360200190f35b6104966112db565b6104d66004803603604081101561076057600080fd5b506001600160a01b0381351690602001356112e7565b6104966004803603602081101561078c57600080fd5b50356001600160a01b0316611333565b6104d66113f9565b61049661145f565b610496600480360360208110156107c257600080fd5b5035611464565b610496600480360360208110156107df57600080fd5b50356001600160a01b0316611471565b6104d66004803603602081101561080557600080fd5b503561148f565b61049661183d565b61083a6004803603602081101561082a57600080fd5b50356001600160a01b031661184f565b6040518086815260200185815260200184815260200183600481111561085c57fe5b60ff1681526001600160801b03909216602083015250604080519182900301945092505050f35b610496611889565b610496600480360360408110156108a157600080fd5b506001600160a01b03813516906020013561188f565b6104966118ec565b6104726118f8565b610472600480360360208110156108dd57600080fd5b5035611907565b61049661192e565b61049661193a565b610496611a3b565b6104d6600480360361016081101561091357600080fd5b506001600160a01b038135811691602081013582169160408201358116916060810135821691608082013581169160a081013582169160c082013581169160e08101358216916101008201358116916101208101358216916101409091013516611a41565b610472611e3e565b610496611e4d565b6104d66004803603602081101561099e57600080fd5b50356001600160a01b0316611e53565b610496611e64565b610472611f20565b61072e611f2f565b610496611f40565b610496600480360360408110156109e457600080fd5b506001600160a01b038135169060200135611f46565b610496611f79565b610472611f7f565b610a12611f8e565b6040805160208082528351818301528351919283929083019185019080838360005b83811015610a4c578181015183820152602001610a34565b50505050905090810190601f168015610a795780820380516001836020036101000a031916815260200191505b509250505060405180910390f35b610472611fb6565b61049660048036036020811015610aa557600080fd5b50356001600160a01b0316611fc5565b610472611fec565b61049660048036036020811015610ad357600080fd5b5035611ffb565b610472612006565b610b0860048036036020811015610af857600080fd5b50356001600160a01b0316612015565b604080519485526020850193909352838301919091526060830152519081900360800190f35b6104d6600480360360e0811015610b4457600080fd5b508035906001600160a01b03602082013581169160408101358216916060820135169060808101359060a08101359060c00135612079565b61049661281b565b610496612821565b610496612828565b61049661283a565b6104d660048036036020811015610bb257600080fd5b50356001600160a01b0316612846565b61049660048036036040811015610bd857600080fd5b506001600160a01b038135169060200135612859565b610496612878565b61049660048036036040811015610c0c57600080fd5b506001600160a01b03813516906020013561287e565b61049660048036036020811015610c3857600080fd5b50356128b4565b61049660048036036020811015610c5557600080fd5b50356001600160a01b03166128c7565b61047260048036036020811015610c7b57600080fd5b50356128e2565b61049661290c565b61072e60048036036020811015610ca057600080fd5b50356001600160a01b0316612912565b61049660048036036020811015610cc657600080fd5b50356001600160a01b0316612970565b6104966129a1565b6104d660048036036020811015610cf457600080fd5b50356001600160a01b03166129ae565b6005546001600160a01b031681565b60185481565b600281565b610d266129bf565b600054600154610d43916001600160a01b03908116911683612a0a565b50565b6000610d506129bf565b6001600160a01b0383166000908152600f6020526040812054610d79908463ffffffff612b2c16565b6001600160a01b0385166000908152600f602052604090208190559150505b92915050565b6000610da86129bf565b610db182612b75565b6001600160801b031690505b919050565b6015602052600090815260409020805460019091015482565b6000610de56129bf565b610d9882612c0f565b686194049f30f720000081565b8051610e385760405162461bcd60e51b81526004018080602001828103825260368152602001806158db6036913960400191505060405180910390fd5b6000546001546005546001600160a01b03928316929182169116610e5a6155d3565b610e62615604565b600260009054906101000a90046001600160a01b03166001600160a01b0316630fdb11cf6040518163ffffffff1660e01b8152600401602060405180830381600087803b158015610eb257600080fd5b505af1158015610ec6573d6000803e3d6000fd5b505050506040513d6020811015610edc57600080fd5b50518252604080516326fcbc6b60e21b815290516001600160a01b03851691639bf2f1ac916004808301926020929190829003018186803b158015610f2057600080fd5b505afa158015610f34573d6000803e3d6000fd5b505050506040513d6020811015610f4a57600080fd5b505160208301528151610f5c90612cbe565b1580156040840152610f8457610f7d8585846000015185602001518a612cdb565b9050610f9c565b610f998585846000015185602001518a612f0b565b90505b6000816020015111610fdf5760405162461bcd60e51b81526004018080602001828103825260228152602001806159cf6022913960400191505060405180910390fd5b826001600160a01b031663335525ad82608001518360a001516040518363ffffffff1660e01b81526004018083815260200182815260200192505050600060405180830381600087803b15801561103557600080fd5b505af1158015611049573d6000803e3d6000fd5b5050505061106185858360c001518460e00151612fd3565b610100810151156110e057600754610100820151604080516364a197f360e01b81526001600160a01b039384166004820152602481019290925251918716916364a197f39160448082019260009290919082900301818387803b1580156110c757600080fd5b505af11580156110db573d6000803e3d6000fd5b505050505b6110ee858260400151613254565b6020810151606083015261010081015160408201518251611126929161111a919063ffffffff612b2c16565b9063ffffffff612b2c16565b608080840182905260608085015160408086015186840151825193845260208401969096528282015291810193909352517f4152c73dd2614c4f9fc35e8c9cf16013cd588c75b49a4c1673ecffdcbcda94039281900390910190a161119585338360600151846040015161339b565b505050505050565b600d5481565b6009546001600160a01b031681565b6001600160a01b0381166000908152600f602052604081206003015460ff166004811115610d9857fe5b6064670de0b6b3a76400005b0460050281565b6103e8670de0b6b3a76400006111e8565b600061120d600d5461349e565b905090565b680ad78ebc5ac620000081565b611228816134d4565b60408051600180825281830190925260609160208083019080368337019050509050818160008151811061125857fe5b60200260200101906001600160a01b031690816001600160a01b03168152505061128181610dfb565b5050565b6001546001600160a01b031681565b6000610d986112a161183d565b8361353c565b6001600160a01b03166000908152600f602052604090206001015490565b60c881565b60165490565b6000610d9882612cbe565b6714d1120d7b16000081565b6112ef6129bf565b8060048111156112fb57fe5b6001600160a01b0383166000908152600f60205260409020600301805460ff1916600183600481111561132a57fe5b02179055505050565b6001600160a01b0381166000908152601560205260408120546013548290611361908363ffffffff612b2c16565b905080158061139a575060016001600160a01b0385166000908152600f602052604090206003015460ff16600481111561139757fe5b14155b156113aa57600092505050610dbd565b6001600160a01b0384166000908152600f6020526040812060020154906113ef670de0b6b3a76400006113e3848663ffffffff61355a16565b9063ffffffff6135b316565b9695505050505050565b6114016129bf565b600061140b6135f5565b9050670de0b6b3a764000081111561141f57fe5b600d8190556040805182815290517fc454ee9b76c52f782a256af821b857ca6e125d1e3333bcede402fec2bed9600c9181900360200190a1610d43613639565b603c81565b6000610d986112a16129a1565b6001600160a01b03166000908152600f602052604090206002015490565b611497615650565b506040805160e081018252600080546001600160a01b0390811683526001548116602084015292820181905260608201819052600b548316608083015260a0820181905260c08201526005549091166114ee6155d3565b6114f6615604565b600260009054906101000a90046001600160a01b03166001600160a01b0316630fdb11cf6040518163ffffffff1660e01b8152600401602060405180830381600087803b15801561154657600080fd5b505af115801561155a573d6000803e3d6000fd5b505050506040513d602081101561157057600080fd5b50518252604080516326fcbc6b60e21b815290516001600160a01b03851691639bf2f1ac916004808301926020929190829003018186803b1580156115b457600080fd5b505afa1580156115c8573d6000803e3d6000fd5b505050506040513d60208110156115de57600080fd5b5051602083015281516115f090612cbe565b158015604084015261161757611610848360000151846020015188613695565b9050611637565b611634846000015185602001518460000151856020015189613a30565b90505b600081602001511161167a5760405162461bcd60e51b81526004018080602001828103825260228152602001806159cf6022913960400191505060405180910390fd5b826001600160a01b031663335525ad82608001518360a001516040518363ffffffff1660e01b81526004018083815260200182815260200192505050600060405180830381600087803b1580156116d057600080fd5b505af11580156116e4573d6000803e3d6000fd5b50505050611704846000015185602001518360c001518460e00151612fd3565b61010081015115611785578351600754610100830151604080516364a197f360e01b81526001600160a01b03938416600482015260248101929092525191909216916364a197f391604480830192600092919082900301818387803b15801561176c57600080fd5b505af1158015611780573d6000803e3d6000fd5b505050505b61179784600001518260400151613254565b60208101516060830152610100810151604082015182516117c3929161111a919063ffffffff612b2c16565b608080840182905260608085015160408086015186840151825193845260208401969096528282015291810193909352517f4152c73dd2614c4f9fc35e8c9cf16013cd588c75b49a4c1673ecffdcbcda94039281900390910190a16118368460000151338360600151846040015161339b565b5050505050565b600061120d61184a6135f5565b613b62565b600f6020526000908152604090208054600182015460028301546003909301549192909160ff81169061010090046001600160801b031685565b600c5481565b60006118996129bf565b6001600160a01b0383166000908152600f60205260408120600101546118c5908463ffffffff613b8916565b6001600160a01b0385166000908152600f6020526040902060010181905591505092915050565b670de0b6b3a764000081565b6002546001600160a01b031681565b6016818154811061191457fe5b6000918252602090912001546001600160a01b0316905081565b670f43fc2c04ee000081565b6000805460408051632f5a97e560e11b8152905183926001600160a01b031691635eb52fca916004808301926020929190829003018186803b15801561197f57600080fd5b505afa158015611993573d6000803e3d6000fd5b505050506040513d60208110156119a957600080fd5b505160015460408051632f5a97e560e11b815290519293506000926001600160a01b0390921691635eb52fca91600480820192602092909190829003018186803b1580156119f657600080fd5b505afa158015611a0a573d6000803e3d6000fd5b505050506040513d6020811015611a2057600080fd5b50519050611a34828263ffffffff613b8916565b9250505090565b60175481565b611a49611f2f565b611a9a576040805162461bcd60e51b815260206004820181905260248201527f4f776e61626c653a2063616c6c6572206973206e6f7420746865206f776e6572604482015290519081900360640190fd5b611aa38b613be3565b611aac8a613be3565b611ab589613be3565b611abe88613be3565b611ac787613be3565b611ad086613be3565b611ad985613be3565b611ae284613be3565b611aeb83613be3565b611af482613be3565b611afd81613be3565b600480546001600160a01b03199081166001600160a01b038e81169182179093556000805483168e85161790556001805483168d85161790556005805483168c85161790556006805483168b85161790556007805483168a8516179055600280548316898516179055600880548316888516179055600b80548316878516179055600980548316868516179055600a805490921692841692909217905560408051918252517f3ca631ffcd2a9b5d9ae18543fc82f58eb4ca33af9e6ab01b7a8e95331e6ed985916020908290030190a1604080516001600160a01b038c16815290517f78f058b189175430c48dc02699e3a0031ea4ff781536dc2fab847de4babdd8829181900360200190a1604080516001600160a01b038b16815290517f5ee0cae2f063ed938bb55046f6a932fb6ae792bf43624806bb90abe68a50be9b9181900360200190a1604080516001600160a01b038a16815290517f82966d27eea39b038ee0fa30cd16532bb24f6e65d31cb58fb227aa5766cdcc7f9181900360200190a1604080516001600160a01b038916815290517fcfb07d791fcafc032b35837b50eb84b74df518cf4cc287e8084f47630fa70fa09181900360200190a1604080516001600160a01b038816815290517fe67f36a6e961157d6eff83b91f3af5a62131ceb6f04954ef74f51c1c05e7f88d9181900360200190a1604080516001600160a01b038716815290517f8c537274438aa850a330284665d81a85dd38267d09e4050d416bfc94142db2649181900360200190a1604080516001600160a01b038616815290517f227eec0ec317af6ab1a9587ffa1c84332522eb4c583a908f89babc05f8f339bd9181900360200190a1604080516001600160a01b038516815290517f65f4cf077bc01e4742eb5ad98326f6e95b63548ea24b17f8d5e823111fe788009181900360200190a1604080516001600160a01b038416815290517f2ac6e99201ddc1b6eac6f8f28662d1ecafee131f6eb98c29de54528a9888a7d19181900360200190a1604080516001600160a01b038316815290517f756ebc192164c295bba134b5aacd72cc7aff8098a670d1f0a5f6b3a0b4ce67079181900360200190a1611e2d613c92565b505042600c55505050505050505050565b6000546001600160a01b031681565b60115481565b611e5b6129bf565b610d4381613cdc565b6000805460408051630a7b61df60e11b8152905183926001600160a01b0316916314f6c3be916004808301926020929190829003018186803b158015611ea957600080fd5b505afa158015611ebd573d6000803e3d6000fd5b505050506040513d6020811015611ed357600080fd5b505160015460408051630a7b61df60e11b815290519293506000926001600160a01b03909216916314f6c3be91600480820192602092909190829003018186803b1580156119f657600080fd5b6003546001600160a01b031690565b6003546001600160a01b0316331490565b60125481565b6000611f506129bf565b6001600160a01b0383166000908152600f6020526040812054610d79908463ffffffff613b8916565b60135481565b600a546001600160a01b031681565b6040518060400160405280600c81526020016b2a3937bb32a6b0b730b3b2b960a11b81525081565b600b546001600160a01b031681565b6000806000611fd384613d47565b915091506000611fe38383613dcd565b95945050505050565b6004546001600160a01b031681565b6000610d9882613e02565b6008546001600160a01b031681565b6001600160a01b0381166000908152600f60205260408120805460019091015490918061204185612970565b915061204c85611333565b905061205e848363ffffffff613b8916565b9350612070838263ffffffff613b8916565b92509193509193565b612081615650565b506040805160e0810182526000546001600160a01b03908116825260015481166020830152600854811692820192909252600a5482166060820152600b5482166080820152600754821660a082015260065490911660c08201526120e361568c565b6120ec83613e2e565b6120f4613e88565b600260009054906101000a90046001600160a01b03166001600160a01b0316630fdb11cf6040518163ffffffff1660e01b8152600401602060405180830381600087803b15801561214457600080fd5b505af1158015612158573d6000803e3d6000fd5b505050506040513d602081101561216e57600080fd5b505160c0820181905261218090613edc565b61218989613f2b565b6121988260400151338b613f6a565b6121a061193a565b60e0820181905260408084015181516370a0823160e01b815233600482015291516001600160a01b03909116916370a08231916024808301926020929190829003018186803b1580156121f257600080fd5b505afa158015612206573d6000803e3d6000fd5b505050506040513d602081101561221c57600080fd5b5051111561222657fe5b888152608082015160c0820151600091612241918b9061402a565b1561224d575087612377565b82608001516001600160a01b0316634d6228316040518163ffffffff1660e01b815260040160206040518083038186803b15801561228a57600080fd5b505afa15801561229e573d6000803e3d6000fd5b505050506040513d60208110156122b457600080fd5b505190505b6001600160a01b038116158015906122e55750670f43fc2c04ee00006122e3828460c00151612859565b105b156123775782608001516001600160a01b031663b72703ac826040518263ffffffff1660e01b815260040180826001600160a01b03166001600160a01b0316815260200191505060206040518083038186803b15801561234457600080fd5b505afa158015612358573d6000803e3d6000fd5b505050506040513d602081101561236e57600080fd5b505190506122b9565b846123825760001994505b6001600160a01b0381161580159061239a5750815115155b80156123a65750600085115b156124da57848060019003955050600083608001516001600160a01b031663b72703ac836040518263ffffffff1660e01b815260040180826001600160a01b03166001600160a01b0316815260200191505060206040518083038186803b15801561241057600080fd5b505afa158015612424573d6000803e3d6000fd5b505050506040513d602081101561243a57600080fd5b5051845160208601519192506124509184612a0a565b6124586156d1565b61246f858486600001518760c001518e8e8e61419d565b90508060400151156124825750506124da565b805160208501516124989163ffffffff613b8916565b60208086019190915281015160408501516124b89163ffffffff613b8916565b6040850152805184516124d09163ffffffff612b2c16565b8452509050612382565b600082604001511161251d5760405162461bcd60e51b815260040180806020018281038252602981526020018061577e6029913960400191505060405180910390fd5b61253482604001518360c001518460e00151614450565b5061254282604001516144f8565b606083018190526040830151612559919086614505565b82600001516001600160a01b03166364a197f3846060015184606001516040518363ffffffff1660e01b815260040180836001600160a01b03166001600160a01b0316815260200182815260200192505050600060405180830381600087803b1580156125c557600080fd5b505af11580156125d9573d6000803e3d6000fd5b5050505082606001516001600160a01b0316631e3e2a1a83606001516040518263ffffffff1660e01b815260040180828152602001915050600060405180830381600087803b15801561262b57600080fd5b505af115801561263f573d6000803e3d6000fd5b505050506060820151604083015161265691612b2c565b8260800181815250507f43a3f4082a4dbc33d78e317d2497d3a730bc7fc3574159dcea1056e62e5d9ad88a8360200151846040015185606001516040518085815260200184815260200183815260200182815260200194505050505060405180910390a182604001516001600160a01b0316639dc29fac3384602001516040518363ffffffff1660e01b815260040180836001600160a01b03166001600160a01b0316815260200182815260200192505050600060405180830381600087803b15801561272257600080fd5b505af1158015612736573d6000803e3d6000fd5b5050505082600001516001600160a01b03166338d995a883602001516040518263ffffffff1660e01b815260040180828152602001915050600060405180830381600087803b15801561278857600080fd5b505af115801561279c573d6000803e3d6000fd5b505084516080850151604080516364a197f360e01b81523360048201526024810192909252516001600160a01b0390921693506364a197f3925060448082019260009290919082900301818387803b1580156127f757600080fd5b505af115801561280b573d6000803e3d6000fd5b5050505050505050505050505050565b60105481565b6212750081565b600061120d6128356135f5565b61349e565b670ddd4b8c6c7d70d881565b61284e6129bf565b610d4381600261457a565b600080600061286785613d47565b9150915060006113ef838387614693565b600e5481565b60006128886129bf565b6001600160a01b0383166000908152600f60205260408120600101546118c5908463ffffffff612b2c16565b6000610d986128c1612828565b836146c3565b6001600160a01b03166000908152600f602052604090205490565b6000601682815481106128f157fe5b6000918252602090912001546001600160a01b031692915050565b60145481565b600060016001600160a01b0383166000908152600f602052604090206003015460ff16600481111561294057fe5b1461294d57506000610dbd565b506013546001600160a01b03821660009081526015602052604090205410919050565b6001600160a01b0381166000908152601560205260408120600101546014548290611361908363ffffffff612b2c16565b600061120d600d54613b62565b6129b66129bf565b610d4381614722565b6004546001600160a01b03163314612a085760405162461bcd60e51b815260040180806020018281038252603b8152602001806158a0603b913960400191505060405180910390fd5b565b612a1381612912565b15612b2757612a21816134d4565b6000612a2c82611333565b90506000612a3983612970565b6001600160a01b0384166000908152600f6020526040902060010154909150612a68908363ffffffff613b8916565b6001600160a01b0384166000908152600f60205260409020600181019190915554612a99908263ffffffff613b8916565b6001600160a01b0384166000908152600f6020526040902055612abb83613cdc565b612ac785858385614772565b6001600160a01b0383166000818152600f602090815260408083208054600182015460029092015483519182529381019190915280820192909252606082019290925290516000805160206158808339815191529181900360800190a250505b505050565b6000612b6e83836040518060400160405280601e81526020017f536166654d6174683a207375627472616374696f6e206f766572666c6f770000815250614874565b9392505050565b601680546001808201835560008381527fd833147d7dc355ba459fc788f669e58cfaf9dc25ddcd0702e87d69c7b512428990920180546001600160a01b0319166001600160a01b03861617905591549091612bd09190612b2c565b6001600160a01b03929092166000908152600f602052604090206003018054610100600160881b0319166101006001600160801b038516021790555090565b6001600160a01b0381166000908152600f60205260408120600101548190612c369061490b565b6001600160a01b0384166000908152600f6020526040902060020180549082905560105491925090612c80908390612c74908463ffffffff612b2c16565b9063ffffffff613b8916565b601081905560408051918252517f6bac5e0eb3c44eb03a60ab11ec3a2c051771616aecadbcfff2630aabae5203829181900360200190a15092915050565b600080612cca83613e02565b6714d1120d7b160000119392505050565b612ce3615604565b612ceb6156f4565b612cf3615604565b84825260006080830152612d0561193a565b60a0830152612d12611e64565b60c0830152600060208301525b835182602001511015612f005783826020015181518110612d3c57fe5b6020908102919091018101516001600160a01b0316606084018190526000908152600f909152604090206003015460019060ff166004811115612d7b57fe5b14612d8557612ef0565b612d93826060015187612859565b60408301526080820151612e9257670f43fc2c04ee0000826040015110158015612dbc57508151155b15612dc657612ef0565b6000612ddb8360c001518460a0015189614693565b9050612df88989856060015186604001518760000151868d614947565b60808101518451919350612e12919063ffffffff612b2c16565b8352608082015160a0840151612e2d9163ffffffff612b2c16565b8360a0018181525050612e6282610100015161111a846040015161111a8660a001518860c00151612b2c90919063ffffffff16565b60c0840152612e718483614c7a565b9350612e868360c001518460a0015189614d91565b15608084015250612ef0565b81608001518015612eae5750670f43fc2c04ee00008260400151105b15612ef057612ec7888884606001518560000151614db2565b60808101518351919250612ee1919063ffffffff612b2c16565b8252612eed8382614c7a565b92505b6020820180516001019052612d1f565b505095945050505050565b612f13615604565b612f1b6156f4565b612f23615604565b848252600060208301525b835182602001511015612f005783826020015181518110612f4b57fe5b60209081029190910101516001600160a01b031660608301819052612f709087612859565b60408301819052670f43fc2c04ee00001115612fc357612f9a888884606001518560000151614db2565b60808101518351919250612fb4919063ffffffff612b2c16565b8252612fc08382614c7a565b92505b6020820180516001019052612f2e565b81612fdd5761324e565b601754600090612fff90612c7484670de0b6b3a764000063ffffffff61355a16565b90506000613024601854612c74670de0b6b3a76400008761355a90919063ffffffff16565b9050600061303d601054846135b390919063ffffffff16565b90506000613056601054846135b390919063ffffffff16565b905061307d6130706010548461355a90919063ffffffff16565b859063ffffffff612b2c16565b6017556010546130a59061309890839063ffffffff61355a16565b849063ffffffff612b2c16565b6018556013546130bb908363ffffffff613b8916565b6013556014546130d1908263ffffffff613b8916565b601481905560135460408051918252602082019290925281517f9f8bc8ab0daf5bceef75ecfd2085d1fcc6548c657ea970d9a23a60610d0737e3929181900390910190a1876001600160a01b03166338d995a8876040518263ffffffff1660e01b815260040180828152602001915050600060405180830381600087803b15801561315b57600080fd5b505af115801561316f573d6000803e3d6000fd5b50505050866001600160a01b031663cfb9329a876040518263ffffffff1660e01b815260040180828152602001915050600060405180830381600087803b1580156131b957600080fd5b505af11580156131cd573d6000803e3d6000fd5b50505050876001600160a01b03166364a197f388876040518363ffffffff1660e01b815260040180836001600160a01b03166001600160a01b0316815260200182815260200192505050600060405180830381600087803b15801561323157600080fd5b505af1158015613245573d6000803e3d6000fd5b50505050505050505b50505050565b6010546011819055506000826001600160a01b03166314f6c3be6040518163ffffffff1660e01b815260040160206040518083038186803b15801561329857600080fd5b505afa1580156132ac573d6000803e3d6000fd5b505050506040513d60208110156132c257600080fd5b505160015460408051630a7b61df60e11b815290519293506000926001600160a01b03909216916314f6c3be91600480820192602092909190829003018186803b15801561330f57600080fd5b505afa158015613323573d6000803e3d6000fd5b505050506040513d602081101561333957600080fd5b5051905061335181612c74848663ffffffff612b2c16565b601281905560115460408051918252602082019290925281517f51bf4c63ec3cba9d03d43238abbdd979dd91bd16d9895c74ceea9118c7baaf60929181900390910190a150505050565b811561341a5760085460065460408051631062c15f60e11b81526001600160a01b039283166004820152868316602482015260448101869052905191909216916320c582be91606480830192600092919082900301818387803b15801561340157600080fd5b505af1158015613415573d6000803e3d6000fd5b505050505b801561324e57836001600160a01b03166364a197f384836040518363ffffffff1660e01b815260040180836001600160a01b03166001600160a01b0316815260200182815260200192505050600060405180830381600087803b15801561348057600080fd5b505af1158015613494573d6000803e3d6000fd5b5050505050505050565b6000610d986134c6836103e8670de0b6b3a76400005b04600502613b8990919063ffffffff16565b670de0b6b3a7640000614f21565b60016001600160a01b0382166000908152600f602052604090206003015460ff16600481111561350057fe5b14610d435760405162461bcd60e51b815260040180806020018281038252602f8152602001806159f1602f913960400191505060405180910390fd5b6000612b6e670de0b6b3a76400006113e3858563ffffffff61355a16565b60008261356957506000610d98565b8282028284828161357657fe5b0414612b6e5760405162461bcd60e51b81526004018080602001828103825260218152602001806158116021913960400191505060405180910390fd5b6000612b6e83836040518060400160405280601a81526020017f536166654d6174683a206469766973696f6e206279207a65726f000000000000815250614f37565b600080613600614f9c565b90506000613616670ddd4b8c6c7d70d883614fb8565b9050611a34670de0b6b3a76400006113e383600d5461355a90919063ffffffff16565b6000613650600e5442612b2c90919063ffffffff16565b9050603c8110610d435742600e81905560408051918252517f860f8d2f0c74dd487e89e2883e3b25b8159ce1e1b3433a291cba7b82c508f3bc9181900360200190a150565b61369d615604565b6136a56156f4565b6136ad615604565b848252600060808301526136bf61193a565b60a08301526136cc611e64565b8260c001818152505086608001516001600160a01b0316634d6228316040518163ffffffff1660e01b815260040160206040518083038186803b15801561371257600080fd5b505afa158015613726573d6000803e3d6000fd5b505050506040513d602081101561373c57600080fd5b50516001600160a01b039081166060840152608088015160408051631e22314360e01b815290516000939290921691631e22314391600480820192602092909190829003018186803b15801561379157600080fd5b505afa1580156137a5573d6000803e3d6000fd5b505050506040513d60208110156137bb57600080fd5b50516000602085015290505b8483602001511080156137f05750806001600160a01b031683606001516001600160a01b031614155b15613a2557600088608001516001600160a01b031663b72703ac85606001516040518263ffffffff1660e01b815260040180826001600160a01b03166001600160a01b0316815260200191505060206040518083038186803b15801561385557600080fd5b505afa158015613869573d6000803e3d6000fd5b505050506040513d602081101561387f57600080fd5b505160608501519091506138939089612859565b6040850152608084015161399757670f43fc2c04ee00008460400151101580156138bc57508351155b156138c75750613a25565b60006138dc8560c001518660a001518b614693565b8a5160208c01516060880151604089015189519495506138fd94868f614947565b60808101518651919550613917919063ffffffff612b2c16565b8552608084015160a08601516139329163ffffffff612b2c16565b8560a001818152505061396784610100015161111a866040015161111a8860a001518a60c00151612b2c90919063ffffffff16565b60c08601526139768685614c7a565b955061398b8560c001518660a001518b614d91565b15608086015250613a07565b836080015180156139b35750670f43fc2c04ee00008460400151105b15613a01576139d489600001518a6020015186606001518760000151614db2565b608081015185519194506139ee919063ffffffff612b2c16565b84526139fa8584614c7a565b9450613a07565b50613a25565b6001600160a01b0316606084015260208301805160010190526137c7565b505050949350505050565b613a38615604565b613a406156f4565b613a48615604565b600b54858352600060208401526001600160a01b03165b8483602001511015613b5657806001600160a01b0316634d6228316040518163ffffffff1660e01b815260040160206040518083038186803b158015613aa457600080fd5b505afa158015613ab8573d6000803e3d6000fd5b505050506040513d6020811015613ace57600080fd5b50516001600160a01b031660608401819052613aea9088612859565b60408401819052670f43fc2c04ee00001115613b4157613b14898985606001518660000151614db2565b60808101518451919350613b2e919063ffffffff612b2c16565b8352613b3a8483614c7a565b9350613b46565b613b56565b6020830180516001019052613a5f565b50505095945050505050565b6000610d98613b7c836103e8670de0b6b3a76400006134b4565b66b1a2bc2ec50000614f21565b600082820183811015612b6e576040805162461bcd60e51b815260206004820152601b60248201527f536166654d6174683a206164646974696f6e206f766572666c6f770000000000604482015290519081900360640190fd5b6001600160a01b038116613c3e576040805162461bcd60e51b815260206004820152601e60248201527f4163636f756e742063616e6e6f74206265207a65726f20616464726573730000604482015290519081900360640190fd5b803b80611281576040805162461bcd60e51b815260206004820181905260248201527f4163636f756e7420636f64652073697a652063616e6e6f74206265207a65726f604482015290519081900360640190fd5b6003546040516000916001600160a01b0316907f8be0079c531659141344cd1fd0a4f28419497f9722a3daafe3b4186f6b6457e0908390a3600380546001600160a01b0319169055565b601380546001600160a01b0383166000908152601560209081526040918290209283556014546001909301839055925481519081529283019190915280517fc437f324d85e369394148dd9d62f98f534b382e01ed3dd2eb98138fb6d3ab49a9281900390910190a150565b6000806000613d5584611333565b90506000613d6285612970565b6001600160a01b0386166000908152600f602052604081206001015491925090613d92908463ffffffff613b8916565b6001600160a01b0387166000908152600f602052604081205491925090613dbf908463ffffffff613b8916565b919550909350505050915091565b60008115613df957613df2826113e38568056bc75e2d6310000063ffffffff61355a16565b9050610d98565b50600019610d98565b600080613e0d611e64565b90506000613e1961193a565b9050613e26828286614693565b949350505050565b6611c37937e080008110801590613e4d5750670de0b6b3a76400008111155b610d435760405162461bcd60e51b81526004018080602001828103825260308152602001806159756030913960400191505060405180910390fd5b600c54613e9e906212750063ffffffff613b8916565b421015612a085760405162461bcd60e51b81526004018080602001828103825260408152602001806157d16040913960400191505060405180910390fd5b670f43fc2c04ee0000613eee82613e02565b1015610d435760405162461bcd60e51b815260040180806020018281038252602a8152602001806159a5602a913960400191505060405180910390fd5b60008111610d435760405162461bcd60e51b815260040180806020018281038252602e815260200180615911602e913960400191505060405180910390fd5b80836001600160a01b03166370a08231846040518263ffffffff1660e01b815260040180826001600160a01b03166001600160a01b0316815260200191505060206040518083038186803b158015613fc157600080fd5b505afa158015613fd5573d6000803e3d6000fd5b505050506040513d6020811015613feb57600080fd5b50511015612b275760405162461bcd60e51b815260040180806020018281038252604e815260200180615832604e913960600191505060405180910390fd5b60006001600160a01b03831615806140c15750836001600160a01b0316635dbe47e8846040518263ffffffff1660e01b815260040180826001600160a01b03166001600160a01b0316815260200191505060206040518083038186803b15801561409357600080fd5b505afa1580156140a7573d6000803e3d6000fd5b505050506040513d60208110156140bd57600080fd5b5051155b806140dc5750670f43fc2c04ee00006140da8484612859565b105b156140e957506000612b6e565b6000846001600160a01b031663765e0159856040518263ffffffff1660e01b815260040180826001600160a01b03166001600160a01b0316815260200191505060206040518083038186803b15801561414157600080fd5b505afa158015614155573d6000803e3d6000fd5b505050506040513d602081101561416b57600080fd5b505190506001600160a01b0381161580611fe35750670f43fc2c04ee00006141938285612859565b1095945050505050565b6141a56156d1565b6001600160a01b0387166000908152600f60205260409020546141e29087906141dd90680ad78ebc5ac620000063ffffffff612b2c16565b614f21565b8082526142039086906113e390670de0b6b3a764000063ffffffff61355a16565b60208083019190915281516001600160a01b0389166000908152600f90925260408220546142369163ffffffff612b2c16565b6020808401516001600160a01b038b166000908152600f9092526040822060010154929350909161426c9163ffffffff612b2c16565b9050680ad78ebc5ac62000008214156143055761428889614722565b61429389600461457a565b6142a88a8a680ad78ebc5ac620000084615063565b886001600160a01b031660008051602061588083398151915260008060006003604051808581526020018481526020018381526020018260038111156142ea57fe5b60ff16815260200194505050505060405180910390a2614442565b60006143118284613dcd565b905084811415806143325750686194049f30f720000061433084615218565b105b156143465750506001604083015250614445565b60808b01516040805163015f109360e51b81526001600160a01b038d81166004830152602482018590528a81166044830152898116606483015291519190921691632be2126091608480830192600092919082900301818387803b1580156143ad57600080fd5b505af11580156143c1573d6000803e3d6000fd5b5050506001600160a01b038b166000908152600f60205260409020848155600101839055506143ef8a612c0f565b506001600160a01b038a166000818152600f6020908152604091829020600201548251878152918201869052818301526003606082015290516000805160206158808339815191529181900360800190a2505b50505b979650505050505050565b60008061445b6135f5565b90506000614473846113e3888863ffffffff61355a16565b9050600061449861448b83600263ffffffff6135b316565b849063ffffffff613b8916565b90506144ac81670de0b6b3a7640000614f21565b9050600081116144b857fe5b600d8190556040805182815290517fc454ee9b76c52f782a256af821b857ca6e125d1e3333bcede402fec2bed9600c9181900360200190a16113ef613639565b6000610d986128c1611200565b6000614523836113e386670de0b6b3a764000063ffffffff61355a16565b90508181111561324e576040805162461bcd60e51b815260206004820152601d60248201527f4665652065786365656465642070726f7669646564206d6178696d756d000000604482015290519081900360640190fd5b600081600481111561458857fe5b141580156145a25750600181600481111561459f57fe5b14155b6145a857fe5b6016546145b481615233565b6001600160a01b0383166000908152600f60205260409020600301805483919060ff191660018360048111156145e657fe5b02179055506001600160a01b0383166000908152600f6020908152604080832060018082018590559084905560159092528220828155015561462883826152ec565b600b5460408051631484968760e11b81526001600160a01b038681166004830152915191909216916329092d0e91602480830192600092919082900301818387803b15801561467657600080fd5b505af115801561468a573d6000803e3d6000fd5b50505050505050565b600082156146ba5760006146b1846113e3878663ffffffff61355a16565b9150612b6e9050565b50600019612b6e565b6000806146e2670de0b6b3a76400006113e3868663ffffffff61355a16565b9050828110612b6e5760405162461bcd60e51b815260040180806020018281038252603681526020018061593f6036913960400191505060405180910390fd5b6001600160a01b0381166000908152600f6020526040902060020154601054614751908263ffffffff612b2c16565b601055506001600160a01b03166000908152600f6020526040812060020155565b826001600160a01b03166338d995a8836040518263ffffffff1660e01b815260040180828152602001915050600060405180830381600087803b1580156147b857600080fd5b505af11580156147cc573d6000803e3d6000fd5b50505050836001600160a01b031663cfb9329a836040518263ffffffff1660e01b815260040180828152602001915050600060405180830381600087803b15801561481657600080fd5b505af115801561482a573d6000803e3d6000fd5b50505050826001600160a01b031663be41205f826040518263ffffffff1660e01b815260040180828152602001915050600060405180830381600087803b15801561348057600080fd5b600081848411156149035760405162461bcd60e51b81526004018080602001828103825283818151815260200191508051906020019080838360005b838110156148c85781810151838201526020016148b0565b50505050905090810190601f1680156148f55780820380516001836020036101000a031916815260200191505b509250505060405180910390fd5b505050900390565b60008060125460001415614920575081610d98565b60006011541161492c57fe5b612b6e6012546113e36011548661355a90919063ffffffff16565b61494f615604565b61495761573c565b6016546001106149675750614445565b61497087612015565b6040850152602084810191909152840181905290835261498f90615493565b60408301819052680ad78ebc5ac6200000606084015260208301516149b99163ffffffff612b2c16565b8152670de0b6b3a76400008611614ac1576149de898983602001518460400151614772565b6149e787614722565b60006080830181905260a0830152815160c0830152805160e0830152614a0e87600361457a565b866001600160a01b031660008051602061575e83398151915283600001518460200151600260405180848152602001838152602001826003811115614a4f57fe5b60ff168152602001935050505060405180910390a2866001600160a01b03166000805160206158808339815191526000806000600260405180858152602001848152602001838152602001826003811115614aa657fe5b60ff16815260200194505050505060405180910390a2614c6e565b670de0b6b3a764000086118015614adf5750670f43fc2c04ee000086105b15614b2f57614af8898983602001518460400151614772565b614b0187614722565b81518151614b1091908761549a565b60e086015260c085015260a08401526080830152614a0e87600361457a565b670f43fc2c04ee00008610158015614b4657508386105b8015614b53575081518510155b15614c5d57614b6c898983602001518460400151614772565b84614b7357fe5b614b7c87614722565b614b8f8260000151836020015185615506565b9150614b9c87600361457a565b61010082015115614c1c5760075461010083015160408051633f10abab60e01b81526001600160a01b038b81166004830152602482019390935290519190921691633f10abab91604480830192600092919082900301818387803b158015614c0357600080fd5b505af1158015614c17573d6000803e3d6000fd5b505050505b866001600160a01b031660008051602061575e83398151915283600001518460a00151600260405180848152602001838152602001826003811115614a4f57fe5b614c65615604565b91506144459050565b50979650505050505050565b614c82615604565b60408083015190840151614c9b9163ffffffff613b8916565b604082015260608083015190840151614cb99163ffffffff613b8916565b606082015281516020840151614cd49163ffffffff613b8916565b6020808301919091528201518351614cf19163ffffffff613b8916565b815260808083015190840151614d0c9163ffffffff613b8916565b608082015260a08083015190840151614d2a9163ffffffff613b8916565b60a082015260c08083015190840151614d489163ffffffff613b8916565b60c082015260e08083015190840151614d669163ffffffff613b8916565b60e08201526101008083015190840151614d859163ffffffff613b8916565b61010082015292915050565b600080614d9f858585614693565b6714d1120d7b1600001195945050505050565b614dba615604565b614dc261573c565b614dcb84612015565b60408501908152602085810192835286019290925291845290519051614df5918891889190614772565b614dfe84614722565b614e0b8260200151615493565b60408301819052680ad78ebc5ac620000060608401526020830151600091614e39919063ffffffff612b2c16565b9050614e4a8360000151828661549a565b60e087015260c086015260a08501526080840152614e6985600361457a565b846001600160a01b031660008051602061575e83398151915284600001518560200151600160405180848152602001838152602001826003811115614eaa57fe5b60ff168152602001935050505060405180910390a2846001600160a01b03166000805160206158808339815191526000806000600160405180858152602001848152602001838152602001826003811115614f0157fe5b60ff16815260200194505050505060405180910390a25050949350505050565b6000818310614f305781612b6e565b5090919050565b60008183614f865760405162461bcd60e51b81526020600482018181528351602484015283519092839260449091019190850190808383600083156148c85781810151838201526020016148b0565b506000838581614f9257fe5b0495945050505050565b600061120d603c6113e3600e5442612b2c90919063ffffffff16565b6000631f540500821115614fce57631f54050091505b81614fe25750670de0b6b3a7640000610d98565b670de0b6b3a764000083835b600181111561505957600281066150235761500982836155a0565b915061501c81600263ffffffff6135b316565b9050615054565b61502d82846155a0565b925061503982836155a0565b915061505160026113e383600163ffffffff612b2c16565b90505b614fee565b6113ef82846155a0565b6040808501516006548251632770a7eb60e21b81526001600160a01b039182166004820152602481018690529251911691639dc29fac91604480830192600092919082900301818387803b1580156150ba57600080fd5b505af11580156150ce573d6000803e3d6000fd5b5050505083600001516001600160a01b03166338d995a8836040518263ffffffff1660e01b815260040180828152602001915050600060405180830381600087803b15801561511c57600080fd5b505af1158015615130573d6000803e3d6000fd5b505050508360a001516001600160a01b0316633f10abab84836040518363ffffffff1660e01b815260040180836001600160a01b03166001600160a01b0316815260200182815260200192505050600060405180830381600087803b15801561519857600080fd5b505af11580156151ac573d6000803e3d6000fd5b5050505083600001516001600160a01b03166364a197f38560a00151836040518363ffffffff1660e01b815260040180836001600160a01b03166001600160a01b0316815260200182815260200192505050600060405180830381600087803b15801561348057600080fd5b6000610d9882680ad78ebc5ac620000063ffffffff612b2c16565b6001811180156152b15750600b546040805163de8fa43160e01b815290516001926001600160a01b03169163de8fa431916004808301926020929190829003018186803b15801561528357600080fd5b505afa158015615297573d6000803e3d6000fd5b505050506040513d60208110156152ad57600080fd5b5051115b610d435760405162461bcd60e51b815260040180806020018281038252602a8152602001806157a7602a913960400191505060405180910390fd5b6001600160a01b0382166000908152600f602052604081206003015460ff169081600481111561531857fe5b141580156153325750600181600481111561532f57fe5b14155b61533857fe5b6001600160a01b0383166000908152600f602052604081206003015461010090046001600160801b0316908390615370826001612b2c565b905080836001600160801b0316111561538557fe5b60006016828154811061539457fe5b600091825260209091200154601680546001600160a01b03909216925082916001600160801b0387169081106153c657fe5b600091825260208083209190910180546001600160a01b0319166001600160a01b03948516179055918316808252600f83526040918290206003018054610100600160881b0319166101006001600160801b038a169081029190911790915582519182529281019290925280517f02b04ae5f7be9ca7c103293a2aa15f3c339d15d6eda53b721fef7b0e609c831a9281900390910190a1601680548061546857fe5b600082815260209020810160001990810180546001600160a01b031916905501905550505050505050565b60c8900490565b600080808084156154f0576154af8786614f21565b93506154c5876113e3888763ffffffff61355a16565b92506154d7878563ffffffff612b2c16565b91506154e9868463ffffffff612b2c16565b90506154fd565b5060009250829150859050845b93509350935093565b61550e615604565b838152602081018390526000615536836113e387670f43fc2c04ee000063ffffffff61355a16565b905061554181615493565b60408301819052680ad78ebc5ac620000060608401526080830186905261556f90829063ffffffff612b2c16565b60a0830152615584848263ffffffff612b2c16565b61010083015250600060c0820181905260e08201529392505050565b6000806155b3848463ffffffff61355a16565b9050613e26670de0b6b3a76400006113e3836706f05b59d3b20000613b89565b6040518060a00160405280600081526020016000815260200160001515815260200160008152602001600081525090565b6040518061012001604052806000815260200160008152602001600081526020016000815260200160008152602001600081526020016000815260200160008152602001600081525090565b6040805160e081018252600080825260208201819052918101829052606081018290526080810182905260a0810182905260c081019190915290565b60405180610100016040528060008152602001600081526020016000815260200160008152602001600081526020016000815260200160008152602001600081525090565b604051806060016040528060008152602001600081526020016000151581525090565b6040518060e0016040528060008152602001600081526020016000815260200160006001600160a01b0316815260200160001515815260200160008152602001600081525090565b6040518060600160405280600081526020016000815260200160008152509056feea67486ed7ebe3eea8ab3390efd4a3c8aae48be5bea27df104a8af786c40843454726f76654d616e616765723a20556e61626c6520746f2072656465656d20616e7920616d6f756e7454726f76654d616e616765723a204f6e6c79206f6e652074726f766520696e207468652073797374656d54726f76654d616e616765723a20526564656d7074696f6e7320617265206e6f7420616c6c6f77656420647572696e6720626f6f747374726170207068617365536166654d6174683a206d756c7469706c69636174696f6e206f766572666c6f7754726f76654d616e616765723a2052657175657374656420726564656d7074696f6e20616d6f756e74206d757374206265203c3d20757365722773204c55534420746f6b656e2062616c616e6365c3770d654ed33aeea6bf11ac8ef05d02a6a04ed4686dd2f624d853bbec43cc8b54726f76654d616e616765723a2043616c6c6572206973206e6f742074686520426f72726f7765724f7065726174696f6e7320636f6e747261637454726f76654d616e616765723a2043616c6c646174612061646472657373206172726179206d757374206e6f7420626520656d70747954726f76654d616e616765723a20416d6f756e74206d7573742062652067726561746572207468616e207a65726f54726f76654d616e616765723a2046656520776f756c642065617420757020616c6c2072657475726e656420636f6c6c61746572616c4d6178206665652070657263656e74616765206d757374206265206265747765656e20302e352520616e64203130302554726f76654d616e616765723a2043616e6e6f742072656465656d207768656e20544352203c204d435254726f76654d616e616765723a206e6f7468696e6720746f206c697175696461746554726f76654d616e616765723a2054726f766520646f6573206e6f74206578697374206f7220697320636c6f736564a2646970667358221220c4461b56b257d945a94830472e54f66fe553e9d1f8fa89a91e703024eaaeb82864736f6c634300060b0033",
  "linkReferences": {},
  "deployedLinkReferences": {}
}